{
  "contractName": "CherryPool",
  "abi": [
    {
      "inputs": [
        {
          "internalType": "contract CherryToken",
          "name": "cherryToken",
          "type": "address"
        }
      ],
      "payable": false,
      "stateMutability": "nonpayable",
      "type": "constructor"
    },
    {
      "payable": true,
      "stateMutability": "payable",
      "type": "fallback"
    },
    {
      "constant": true,
      "inputs": [],
      "name": "getEthBalance",
      "outputs": [
        {
          "internalType": "uint256",
          "name": "balance",
          "type": "uint256"
        }
      ],
      "payable": false,
      "stateMutability": "view",
      "type": "function"
    },
    {
      "constant": true,
      "inputs": [],
      "name": "getCtnBalance",
      "outputs": [
        {
          "internalType": "uint256",
          "name": "balance",
          "type": "uint256"
        }
      ],
      "payable": false,
      "stateMutability": "view",
      "type": "function"
    },
    {
      "constant": true,
      "inputs": [],
      "name": "getCollectedFees",
      "outputs": [
        {
          "internalType": "uint256",
          "name": "fees",
          "type": "uint256"
        }
      ],
      "payable": false,
      "stateMutability": "view",
      "type": "function"
    },
    {
      "constant": true,
      "inputs": [
        {
          "internalType": "address",
          "name": "owner",
          "type": "address"
        }
      ],
      "name": "getLiquidityTokenBalances",
      "outputs": [
        {
          "internalType": "uint256",
          "name": "funds",
          "type": "uint256"
        }
      ],
      "payable": false,
      "stateMutability": "view",
      "type": "function"
    },
    {
      "constant": false,
      "inputs": [
        {
          "internalType": "uint256",
          "name": "ctnAmount",
          "type": "uint256"
        },
        {
          "internalType": "uint256",
          "name": "liquidityTokenAmount",
          "type": "uint256"
        }
      ],
      "name": "addLiquidity",
      "outputs": [],
      "payable": true,
      "stateMutability": "payable",
      "type": "function"
    },
    {
      "constant": false,
      "inputs": [
        {
          "internalType": "uint256",
          "name": "ethAmount",
          "type": "uint256"
        },
        {
          "internalType": "uint256",
          "name": "ctnAmount",
          "type": "uint256"
        },
        {
          "internalType": "uint256",
          "name": "liquidityTokenAmount",
          "type": "uint256"
        },
        {
          "internalType": "uint256",
          "name": "reward",
          "type": "uint256"
        }
      ],
      "name": "removeLiquidity",
      "outputs": [],
      "payable": false,
      "stateMutability": "nonpayable",
      "type": "function"
    },
    {
      "constant": false,
      "inputs": [],
      "name": "swapEthToCtn",
      "outputs": [
        {
          "internalType": "uint256",
          "name": "receivedCtn",
          "type": "uint256"
        }
      ],
      "payable": true,
      "stateMutability": "payable",
      "type": "function"
    },
    {
      "constant": false,
      "inputs": [
        {
          "internalType": "uint256",
          "name": "amount",
          "type": "uint256"
        }
      ],
      "name": "swapCtnToEth",
      "outputs": [
        {
          "internalType": "uint256",
          "name": "receivedEth",
          "type": "uint256"
        }
      ],
      "payable": false,
      "stateMutability": "nonpayable",
      "type": "function"
    }
  ],
  "bytecode": "0x6080604052600060025534801561001557600080fd5b506040516113e43803806113e48339818101604052602081101561003857600080fd5b810190808051906020019092919050505080600160006101000a81548173ffffffffffffffffffffffffffffffffffffffff021916908373ffffffffffffffffffffffffffffffffffffffff160217905550336000806101000a81548173ffffffffffffffffffffffffffffffffffffffff021916908373ffffffffffffffffffffffffffffffffffffffff1602179055505061130a806100da6000396000f3fe60806040526004361061007b5760003560e01c80639cd441da1161004e5780639cd441da14610187578063d54a8d18146101bf578063f4fba869146101ea578063f88bf15a146102085761007b565b80634e9132581461007d57806370ed0ada146100cc57806390d1beb7146100f757806396714ef41461015c575b005b34801561008957600080fd5b506100b6600480360360208110156100a057600080fd5b8101908080359060200190929190505050610261565b6040518082815260200191505060405180910390f35b3480156100d857600080fd5b506100e161051e565b6040518082815260200191505060405180910390f35b34801561010357600080fd5b506101466004803603602081101561011a57600080fd5b81019080803573ffffffffffffffffffffffffffffffffffffffff16906020019092919050505061053d565b6040518082815260200191505060405180910390f35b34801561016857600080fd5b50610171610586565b6040518082815260200191505060405180910390f35b6101bd6004803603604081101561019d57600080fd5b81019080803590602001909291908035906020019092919050505061067b565b005b3480156101cb57600080fd5b506101d46109f2565b6040518082815260200191505060405180910390f35b6101f26109fc565b6040518082815260200191505060405180910390f35b34801561021457600080fd5b5061025f6004803603608081101561022b57600080fd5b8101908080359060200190929190803590602001909291908035906020019092919080359060200190929190505050610c3c565b005b60008082116102d8576040517f08c379a00000000000000000000000000000000000000000000000000000000081526004018080602001828103825260128152602001807f616d6f756e742063616e6e6f742062652030000000000000000000000000000081525060200191505060405180910390fd5b60006102ef6103e88461114890919063ffffffff16565b9050600061031a600a61030c6001856111d790919063ffffffff16565b61114890919063ffffffff16565b90506103258161125d565b610338818361127b90919063ffffffff16565b61034061051e565b10156103b4576040517f08c379a000000000000000000000000000000000000000000000000000000000815260040180806020018281038252601a8152602001807f6e6f7420656e6f7567682066756e647320617661696c61626c6500000000000081525060200191505060405180910390fd5b600160009054906101000a900473ffffffffffffffffffffffffffffffffffffffff1673ffffffffffffffffffffffffffffffffffffffff166323b872dd3330876040518463ffffffff1660e01b8152600401808473ffffffffffffffffffffffffffffffffffffffff1673ffffffffffffffffffffffffffffffffffffffff1681526020018373ffffffffffffffffffffffffffffffffffffffff1673ffffffffffffffffffffffffffffffffffffffff1681526020018281526020019350505050602060405180830381600087803b15801561049157600080fd5b505af11580156104a5573d6000803e3d6000fd5b505050506040513d60208110156104bb57600080fd5b8101908080519060200190929190505050503373ffffffffffffffffffffffffffffffffffffffff166108fc839081150290604051600060405180830381858888f19350505050158015610513573d6000803e3d6000fd5b508192505050919050565b60003073ffffffffffffffffffffffffffffffffffffffff1631905090565b6000600360008373ffffffffffffffffffffffffffffffffffffffff1673ffffffffffffffffffffffffffffffffffffffff168152602001908152602001600020549050919050565b6000610676600254600160009054906101000a900473ffffffffffffffffffffffffffffffffffffffff1673ffffffffffffffffffffffffffffffffffffffff166370a08231306040518263ffffffff1660e01b8152600401808273ffffffffffffffffffffffffffffffffffffffff1673ffffffffffffffffffffffffffffffffffffffff16815260200191505060206040518083038186803b15801561062d57600080fd5b505afa158015610641573d6000803e3d6000fd5b505050506040513d602081101561065757600080fd5b810190808051906020019092919050505061127b90919063ffffffff16565b905090565b600034116106f1576040517f08c379a00000000000000000000000000000000000000000000000000000000081526004018080602001828103825260168152602001807f45544820616d6f756e742063616e6e6f7420626520300000000000000000000081525060200191505060405180910390fd5b81600160009054906101000a900473ffffffffffffffffffffffffffffffffffffffff1673ffffffffffffffffffffffffffffffffffffffff166370a08231336040518263ffffffff1660e01b8152600401808273ffffffffffffffffffffffffffffffffffffffff1673ffffffffffffffffffffffffffffffffffffffff16815260200191505060206040518083038186803b15801561079157600080fd5b505afa1580156107a5573d6000803e3d6000fd5b505050506040513d60208110156107bb57600080fd5b81019080805190602001909291905050501015610840576040517f08c379a00000000000000000000000000000000000000000000000000000000081526004018080602001828103825260148152602001807f6e6f7420656e6f7567682043544e2066756e647300000000000000000000000081525060200191505060405180910390fd5b600160009054906101000a900473ffffffffffffffffffffffffffffffffffffffff1673ffffffffffffffffffffffffffffffffffffffff166323b872dd3330856040518463ffffffff1660e01b8152600401808473ffffffffffffffffffffffffffffffffffffffff1673ffffffffffffffffffffffffffffffffffffffff1681526020018373ffffffffffffffffffffffffffffffffffffffff1673ffffffffffffffffffffffffffffffffffffffff1681526020018281526020019350505050602060405180830381600087803b15801561091d57600080fd5b505af1158015610931573d6000803e3d6000fd5b505050506040513d602081101561094757600080fd5b8101908080519060200190929190505050506109ab81600360003373ffffffffffffffffffffffffffffffffffffffff1673ffffffffffffffffffffffffffffffffffffffff1681526020019081526020016000205461129590919063ffffffff16565b600360003373ffffffffffffffffffffffffffffffffffffffff1673ffffffffffffffffffffffffffffffffffffffff168152602001908152602001600020819055505050565b6000600254905090565b6000803411610a73576040517f08c379a00000000000000000000000000000000000000000000000000000000081526004018080602001828103825260128152602001807f616d6f756e742063616e6e6f742062652030000000000000000000000000000081525060200191505060405180910390fd5b6000610a9c6001610a8e6064346111d790919063ffffffff16565b61114890919063ffffffff16565b90506000610ac782610ab96103e8346111d790919063ffffffff16565b61127b90919063ffffffff16565b9050610ad28261125d565b80610adb610586565b1015610b4f576040517f08c379a000000000000000000000000000000000000000000000000000000000815260040180806020018281038252601a8152602001807f6e6f7420656e6f7567682066756e647320617661696c61626c6500000000000081525060200191505060405180910390fd5b600160009054906101000a900473ffffffffffffffffffffffffffffffffffffffff1673ffffffffffffffffffffffffffffffffffffffff1663a9059cbb33836040518363ffffffff1660e01b8152600401808373ffffffffffffffffffffffffffffffffffffffff1673ffffffffffffffffffffffffffffffffffffffff16815260200182815260200192505050602060405180830381600087803b158015610bf857600080fd5b505af1158015610c0c573d6000803e3d6000fd5b505050506040513d6020811015610c2257600080fd5b810190808051906020019092919050505050809250505090565b60008411610cb2576040517f08c379a00000000000000000000000000000000000000000000000000000000081526004018080602001828103825260168152602001807f65746820616d6f756e742063616e6e6f7420626520300000000000000000000081525060200191505060405180910390fd5b60008311610d28576040517f08c379a00000000000000000000000000000000000000000000000000000000081526004018080602001828103825260168152602001807f63746e20616d6f756e742063616e6e6f7420626520300000000000000000000081525060200191505060405180910390fd5b83610d3161051e565b1015610da5576040517f08c379a00000000000000000000000000000000000000000000000000000000081526004018080602001828103825260168152602001807f6e6f7420656e6f7567682045544820696e20706f6f6c0000000000000000000081525060200191505060405180910390fd5b82610dae610586565b1015610e22576040517f08c379a00000000000000000000000000000000000000000000000000000000081526004018080602001828103825260168152602001807f6e6f7420656e6f7567682043544e20696e20706f6f6c0000000000000000000081525060200191505060405180910390fd5b81600360003373ffffffffffffffffffffffffffffffffffffffff1673ffffffffffffffffffffffffffffffffffffffff1681526020019081526020016000205411610ed6576040517f08c379a000000000000000000000000000000000000000000000000000000000815260040180806020018281038252601b8152602001807f6e6f7420656e6f756768206c697175696469747920746f6b656e73000000000081525060200191505060405180910390fd5b806002541015610f4e576040517f08c379a000000000000000000000000000000000000000000000000000000000815260040180806020018281038252600e8152602001807f696e76616c69642072657761726400000000000000000000000000000000000081525060200191505060405180910390fd5b6000610f63828561129590919063ffffffff16565b9050600160009054906101000a900473ffffffffffffffffffffffffffffffffffffffff1673ffffffffffffffffffffffffffffffffffffffff1663a9059cbb33836040518363ffffffff1660e01b8152600401808373ffffffffffffffffffffffffffffffffffffffff1673ffffffffffffffffffffffffffffffffffffffff16815260200182815260200192505050602060405180830381600087803b15801561100e57600080fd5b505af1158015611022573d6000803e3d6000fd5b505050506040513d602081101561103857600080fd5b8101908080519060200190929190505050503373ffffffffffffffffffffffffffffffffffffffff166108fc869081150290604051600060405180830381858888f19350505050158015611090573d6000803e3d6000fd5b506110e383600360003373ffffffffffffffffffffffffffffffffffffffff1673ffffffffffffffffffffffffffffffffffffffff1681526020019081526020016000205461127b90919063ffffffff16565b600360003373ffffffffffffffffffffffffffffffffffffffff1673ffffffffffffffffffffffffffffffffffffffff1681526020019081526020016000208190555061113b8260025461127b90919063ffffffff16565b6002819055505050505050565b60008082116111bf576040517f08c379a000000000000000000000000000000000000000000000000000000000815260040180806020018281038252601a8152602001807f536166654d6174683a206469766973696f6e206279207a65726f00000000000081525060200191505060405180910390fd5b60008284816111ca57fe5b0490508091505092915050565b6000808314156111ea5760009050611257565b60008284029050828482816111fb57fe5b0414611252576040517f08c379a00000000000000000000000000000000000000000000000000000000081526004018080602001828103825260218152602001806112b56021913960400191505060405180910390fd5b809150505b92915050565b6112728160025461129590919063ffffffff16565b60028190555050565b60008282111561128a57600080fd5b818303905092915050565b6000808284019050838110156112aa57600080fd5b809150509291505056fe536166654d6174683a206d756c7469706c69636174696f6e206f766572666c6f77a265627a7a723158207d1868cfc043be871cce12f5db673667f87aeb82cf2734d6dd0920249dc93bbd64736f6c63430005100032",
  "source": "pragma solidity ^0.5.16;\n\nimport \"./SafeMath.sol\";\nimport \"./CherryToken.sol\";\n\ncontract CherryPool {\n  using SafeMath for uint256;\n\n  address private _owner;\n  CherryToken private _cherryToken;\n\n  uint256 private _collectedFees = 0;\n\n  mapping(address => uint256) private _liquidityTokenBalances;\n\n  constructor(CherryToken cherryToken) public {\n    _cherryToken = cherryToken;\n    _owner = msg.sender;\n  }\n\n  function () external payable {}\n\n  function getEthBalance() public view returns (uint256 balance) {\n    return address(this).balance;\n  }\n\n  function getCtnBalance() public view returns (uint256 balance) {\n    return _cherryToken.balanceOf(address(this)).sub(_collectedFees);\n  }\n\n  function getCollectedFees() public view returns (uint256 fees) {\n    return _collectedFees;\n  }\n\n  function getLiquidityTokenBalances(address owner) public view returns (uint256 funds) {\n    return _liquidityTokenBalances[owner];\n  }\n\n  function addLiquidity(uint256 ctnAmount, uint256 liquidityTokenAmount) public payable {\n    require(msg.value > 0, \"ETH amount cannot be 0\");\n    require(_cherryToken.balanceOf(msg.sender) >= ctnAmount, \"not enough CTN funds\");\n    _cherryToken.transferFrom(msg.sender, address(this), ctnAmount);\n    _liquidityTokenBalances[msg.sender] = _liquidityTokenBalances[msg.sender].add(liquidityTokenAmount);\n  }\n\n  function removeLiquidity(uint256 ethAmount, uint256 ctnAmount, uint256 liquidityTokenAmount, uint256 reward) public {\n    require(ethAmount > 0, \"eth amount cannot be 0\");\n    require(ctnAmount > 0, \"ctn amount cannot be 0\");\n    require(getEthBalance() >= ethAmount, \"not enough ETH in pool\");\n    require(getCtnBalance() >= ctnAmount, \"not enough CTN in pool\");\n    require(_liquidityTokenBalances[msg.sender] > liquidityTokenAmount, \"not enough liquidity tokens\");\n    require(_collectedFees >= reward, \"invalid reward\");\n    uint256 ctnPayout = ctnAmount.add(reward);\n    _cherryToken.transfer(msg.sender, ctnPayout);\n    msg.sender.transfer(ethAmount);\n    _liquidityTokenBalances[msg.sender] = _liquidityTokenBalances[msg.sender].sub(liquidityTokenAmount);\n    _collectedFees = _collectedFees.sub(reward);\n  }\n\n  function swapEthToCtn() public payable returns (uint256 receivedCtn) {\n    require(msg.value > 0, \"amount cannot be 0\");\n    uint256 fees = msg.value.mul(100).div(1); // 10%\n    uint256 ctnAmount = msg.value.mul(1000).sub(fees); // TODO: refactor\n    _addFees(fees);\n    require(getCtnBalance() >= ctnAmount, \"not enough funds available\");\n    _cherryToken.transfer(msg.sender, ctnAmount);\n    return ctnAmount;\n  }\n\n  function swapCtnToEth(uint256 amount) public returns (uint256 receivedEth) {\n    require(amount > 0, \"amount cannot be 0\");\n    uint256 ethAmount = amount.div(1000); // TODO: refactor\n    uint256 fees = ethAmount.mul(1).div(10); // 10%\n    _addFees(fees);\n    require(getEthBalance() >= ethAmount.sub(fees), \"not enough funds available\");\n    _cherryToken.transferFrom(msg.sender, address(this), amount);\n    msg.sender.transfer(ethAmount);\n    return ethAmount;\n  }\n\n  function _addFees(uint256 amount) private {\n    _collectedFees = _collectedFees.add(amount);\n  }\n}",
  "sourcePath": "/Users/johannes/Documents/Projects/github/cherrypool/contracts/CherryPool.sol",
  "compiler": {
    "name": "solc",
    "version": "0.5.16+commit.9c3226ce.Emscripten.clang"
  },
  "schemaVersion": "3.2.3",
  "updatedAt": "2021-01-22T09:50:05.112Z",
  "networkType": "ethereum",
  "devdoc": {
    "methods": {}
  },
  "userdoc": {
    "methods": {}
  }
}