{
  "contractName": "CherryPool",
  "abi": [
    {
      "inputs": [
        {
          "internalType": "contract CherryToken",
          "name": "cherryToken",
          "type": "address"
        }
      ],
      "payable": false,
      "stateMutability": "nonpayable",
      "type": "constructor"
    },
    {
      "payable": true,
      "stateMutability": "payable",
      "type": "fallback"
    },
    {
      "constant": true,
      "inputs": [],
      "name": "getEthBalance",
      "outputs": [
        {
          "internalType": "uint256",
          "name": "balance",
          "type": "uint256"
        }
      ],
      "payable": false,
      "stateMutability": "view",
      "type": "function"
    },
    {
      "constant": true,
      "inputs": [],
      "name": "getCtnBalance",
      "outputs": [
        {
          "internalType": "uint256",
          "name": "balance",
          "type": "uint256"
        }
      ],
      "payable": false,
      "stateMutability": "view",
      "type": "function"
    },
    {
      "constant": true,
      "inputs": [],
      "name": "getAvailableRewards",
      "outputs": [
        {
          "internalType": "uint256",
          "name": "rewards",
          "type": "uint256"
        }
      ],
      "payable": false,
      "stateMutability": "view",
      "type": "function"
    },
    {
      "constant": true,
      "inputs": [
        {
          "internalType": "address",
          "name": "owner",
          "type": "address"
        }
      ],
      "name": "getLiquidityTokenBalance",
      "outputs": [
        {
          "internalType": "uint256",
          "name": "funds",
          "type": "uint256"
        }
      ],
      "payable": false,
      "stateMutability": "view",
      "type": "function"
    },
    {
      "constant": false,
      "inputs": [
        {
          "internalType": "uint256",
          "name": "ctnAmount",
          "type": "uint256"
        },
        {
          "internalType": "uint256",
          "name": "liquidityTokenAmount",
          "type": "uint256"
        }
      ],
      "name": "addLiquidity",
      "outputs": [],
      "payable": true,
      "stateMutability": "payable",
      "type": "function"
    },
    {
      "constant": false,
      "inputs": [
        {
          "internalType": "uint256",
          "name": "ethAmount",
          "type": "uint256"
        },
        {
          "internalType": "uint256",
          "name": "ctnAmount",
          "type": "uint256"
        },
        {
          "internalType": "uint256",
          "name": "liquidityTokenAmount",
          "type": "uint256"
        },
        {
          "internalType": "uint256",
          "name": "totalLiquidityTokens",
          "type": "uint256"
        }
      ],
      "name": "removeLiquidity",
      "outputs": [],
      "payable": false,
      "stateMutability": "nonpayable",
      "type": "function"
    },
    {
      "constant": false,
      "inputs": [
        {
          "internalType": "uint256",
          "name": "fees",
          "type": "uint256"
        }
      ],
      "name": "swapEthToCtn",
      "outputs": [
        {
          "internalType": "uint256",
          "name": "receivedCtn",
          "type": "uint256"
        }
      ],
      "payable": true,
      "stateMutability": "payable",
      "type": "function"
    },
    {
      "constant": false,
      "inputs": [
        {
          "internalType": "uint256",
          "name": "amount",
          "type": "uint256"
        },
        {
          "internalType": "uint256",
          "name": "fees",
          "type": "uint256"
        }
      ],
      "name": "swapCtnToEth",
      "outputs": [
        {
          "internalType": "uint256",
          "name": "receivedEth",
          "type": "uint256"
        }
      ],
      "payable": false,
      "stateMutability": "nonpayable",
      "type": "function"
    }
  ],
  "bytecode": "0x6080604052600060025534801561001557600080fd5b506040516114673803806114678339818101604052602081101561003857600080fd5b810190808051906020019092919050505080600160006101000a81548173ffffffffffffffffffffffffffffffffffffffff021916908373ffffffffffffffffffffffffffffffffffffffff160217905550336000806101000a81548173ffffffffffffffffffffffffffffffffffffffff021916908373ffffffffffffffffffffffffffffffffffffffff1602179055505061138d806100da6000396000f3fe60806040526004361061007b5760003560e01c8063aa06f3721161004e578063aa06f37214610164578063c61f0991146101a6578063f88bf15a1461020b578063fc9c99ac146102645761007b565b80631adb0da21461007d57806370ed0ada146100d657806396714ef4146101015780639cd441da1461012c575b005b34801561008957600080fd5b506100c0600480360360408110156100a057600080fd5b81019080803590602001909291908035906020019092919050505061028f565b6040518082815260200191505060405180910390f35b3480156100e257600080fd5b506100eb61053f565b6040518082815260200191505060405180910390f35b34801561010d57600080fd5b5061011661055e565b6040518082815260200191505060405180910390f35b6101626004803603604081101561014257600080fd5b81019080803590602001909291908035906020019092919050505061063f565b005b6101906004803603602081101561017a57600080fd5b81019080803590602001909291905050506109b6565b6040518082815260200191505060405180910390f35b3480156101b257600080fd5b506101f5600480360360208110156101c957600080fd5b81019080803573ffffffffffffffffffffffffffffffffffffffff169060200190929190505050610bd8565b6040518082815260200191505060405180910390f35b34801561021757600080fd5b506102626004803603608081101561022e57600080fd5b8101908080359060200190929190803590602001909291908035906020019092919080359060200190929190505050610c21565b005b34801561027057600080fd5b506102796111ae565b6040518082815260200191505060405180910390f35b6000808311610306576040517f08c379a00000000000000000000000000000000000000000000000000000000081526004018080602001828103825260128152602001807f616d6f756e742063616e6e6f742062652030000000000000000000000000000081525060200191505060405180910390fd5b600061033b8461032d61031761055e565b61031f61053f565b6111b890919063ffffffff16565b61124790919063ffffffff16565b9050610346836112cd565b61035983826112fe90919063ffffffff16565b61036161053f565b10156103d5576040517f08c379a000000000000000000000000000000000000000000000000000000000815260040180806020018281038252601a8152602001807f6e6f7420656e6f7567682066756e647320617661696c61626c6500000000000081525060200191505060405180910390fd5b600160009054906101000a900473ffffffffffffffffffffffffffffffffffffffff1673ffffffffffffffffffffffffffffffffffffffff166323b872dd3330876040518463ffffffff1660e01b8152600401808473ffffffffffffffffffffffffffffffffffffffff1673ffffffffffffffffffffffffffffffffffffffff1681526020018373ffffffffffffffffffffffffffffffffffffffff1673ffffffffffffffffffffffffffffffffffffffff1681526020018281526020019350505050602060405180830381600087803b1580156104b257600080fd5b505af11580156104c6573d6000803e3d6000fd5b505050506040513d60208110156104dc57600080fd5b8101908080519060200190929190505050503373ffffffffffffffffffffffffffffffffffffffff166108fc829081150290604051600060405180830381858888f19350505050158015610534573d6000803e3d6000fd5b508091505092915050565b60003073ffffffffffffffffffffffffffffffffffffffff1631905090565b6000600160009054906101000a900473ffffffffffffffffffffffffffffffffffffffff1673ffffffffffffffffffffffffffffffffffffffff166370a08231306040518263ffffffff1660e01b8152600401808273ffffffffffffffffffffffffffffffffffffffff1673ffffffffffffffffffffffffffffffffffffffff16815260200191505060206040518083038186803b1580156105ff57600080fd5b505afa158015610613573d6000803e3d6000fd5b505050506040513d602081101561062957600080fd5b8101908080519060200190929190505050905090565b600034116106b5576040517f08c379a00000000000000000000000000000000000000000000000000000000081526004018080602001828103825260168152602001807f45544820616d6f756e742063616e6e6f7420626520300000000000000000000081525060200191505060405180910390fd5b81600160009054906101000a900473ffffffffffffffffffffffffffffffffffffffff1673ffffffffffffffffffffffffffffffffffffffff166370a08231336040518263ffffffff1660e01b8152600401808273ffffffffffffffffffffffffffffffffffffffff1673ffffffffffffffffffffffffffffffffffffffff16815260200191505060206040518083038186803b15801561075557600080fd5b505afa158015610769573d6000803e3d6000fd5b505050506040513d602081101561077f57600080fd5b81019080805190602001909291905050501015610804576040517f08c379a00000000000000000000000000000000000000000000000000000000081526004018080602001828103825260148152602001807f6e6f7420656e6f7567682043544e2066756e647300000000000000000000000081525060200191505060405180910390fd5b600160009054906101000a900473ffffffffffffffffffffffffffffffffffffffff1673ffffffffffffffffffffffffffffffffffffffff166323b872dd3330856040518463ffffffff1660e01b8152600401808473ffffffffffffffffffffffffffffffffffffffff1673ffffffffffffffffffffffffffffffffffffffff1681526020018373ffffffffffffffffffffffffffffffffffffffff1673ffffffffffffffffffffffffffffffffffffffff1681526020018281526020019350505050602060405180830381600087803b1580156108e157600080fd5b505af11580156108f5573d6000803e3d6000fd5b505050506040513d602081101561090b57600080fd5b81019080805190602001909291905050505061096f81600360003373ffffffffffffffffffffffffffffffffffffffff1673ffffffffffffffffffffffffffffffffffffffff1681526020019081526020016000205461131890919063ffffffff16565b600360003373ffffffffffffffffffffffffffffffffffffffff1673ffffffffffffffffffffffffffffffffffffffff168152602001908152602001600020819055505050565b6000803411610a2d576040517f08c379a00000000000000000000000000000000000000000000000000000000081526004018080602001828103825260128152602001807f616d6f756e742063616e6e6f742062652030000000000000000000000000000081525060200191505060405180910390fd5b6000610a6234610a54610a3e61053f565b610a4661055e565b6111b890919063ffffffff16565b61124790919063ffffffff16565b9050610a6d836112cd565b80610a7661055e565b1015610aea576040517f08c379a000000000000000000000000000000000000000000000000000000000815260040180806020018281038252601a8152602001807f6e6f7420656e6f7567682066756e647320617661696c61626c6500000000000081525060200191505060405180910390fd5b600160009054906101000a900473ffffffffffffffffffffffffffffffffffffffff1673ffffffffffffffffffffffffffffffffffffffff1663a9059cbb33836040518363ffffffff1660e01b8152600401808373ffffffffffffffffffffffffffffffffffffffff1673ffffffffffffffffffffffffffffffffffffffff16815260200182815260200192505050602060405180830381600087803b158015610b9357600080fd5b505af1158015610ba7573d6000803e3d6000fd5b505050506040513d6020811015610bbd57600080fd5b81019080805190602001909291905050505080915050919050565b6000600360008373ffffffffffffffffffffffffffffffffffffffff1673ffffffffffffffffffffffffffffffffffffffff168152602001908152602001600020549050919050565b60008411610c97576040517f08c379a00000000000000000000000000000000000000000000000000000000081526004018080602001828103825260168152602001807f65746820616d6f756e742063616e6e6f7420626520300000000000000000000081525060200191505060405180910390fd5b60008311610d0d576040517f08c379a00000000000000000000000000000000000000000000000000000000081526004018080602001828103825260168152602001807f63746e20616d6f756e742063616e6e6f7420626520300000000000000000000081525060200191505060405180910390fd5b83610d1661053f565b1015610d8a576040517f08c379a00000000000000000000000000000000000000000000000000000000081526004018080602001828103825260168152602001807f6e6f7420656e6f7567682045544820696e20706f6f6c0000000000000000000081525060200191505060405180910390fd5b82610d9361055e565b1015610e07576040517f08c379a00000000000000000000000000000000000000000000000000000000081526004018080602001828103825260168152602001807f6e6f7420656e6f7567682043544e20696e20706f6f6c0000000000000000000081525060200191505060405180910390fd5b81600360003373ffffffffffffffffffffffffffffffffffffffff1673ffffffffffffffffffffffffffffffffffffffff1681526020019081526020016000205411610ebb576040517f08c379a000000000000000000000000000000000000000000000000000000000815260040180806020018281038252601b8152602001807f6e6f7420656e6f756768206c697175696469747920746f6b656e73000000000081525060200191505060405180910390fd5b6000610ee4610ed383856111b890919063ffffffff16565b60025461124790919063ffffffff16565b9050610efb816002546112fe90919063ffffffff16565b600281905550600160009054906101000a900473ffffffffffffffffffffffffffffffffffffffff1673ffffffffffffffffffffffffffffffffffffffff166340c10f1933836040518363ffffffff1660e01b8152600401808373ffffffffffffffffffffffffffffffffffffffff1673ffffffffffffffffffffffffffffffffffffffff16815260200182815260200192505050602060405180830381600087803b158015610faa57600080fd5b505af1158015610fbe573d6000803e3d6000fd5b505050506040513d6020811015610fd457600080fd5b810190808051906020019092919050505050600160009054906101000a900473ffffffffffffffffffffffffffffffffffffffff1673ffffffffffffffffffffffffffffffffffffffff1663a9059cbb33866040518363ffffffff1660e01b8152600401808373ffffffffffffffffffffffffffffffffffffffff1673ffffffffffffffffffffffffffffffffffffffff16815260200182815260200192505050602060405180830381600087803b15801561108f57600080fd5b505af11580156110a3573d6000803e3d6000fd5b505050506040513d60208110156110b957600080fd5b8101908080519060200190929190505050503373ffffffffffffffffffffffffffffffffffffffff166108fc869081150290604051600060405180830381858888f19350505050158015611111573d6000803e3d6000fd5b5061116483600360003373ffffffffffffffffffffffffffffffffffffffff1673ffffffffffffffffffffffffffffffffffffffff168152602001908152602001600020546112fe90919063ffffffff16565b600360003373ffffffffffffffffffffffffffffffffffffffff1673ffffffffffffffffffffffffffffffffffffffff168152602001908152602001600020819055505050505050565b6000600254905090565b600080821161122f576040517f08c379a000000000000000000000000000000000000000000000000000000000815260040180806020018281038252601a8152602001807f536166654d6174683a206469766973696f6e206279207a65726f00000000000081525060200191505060405180910390fd5b600082848161123a57fe5b0490508091505092915050565b60008083141561125a57600090506112c7565b600082840290508284828161126b57fe5b04146112c2576040517f08c379a00000000000000000000000000000000000000000000000000000000081526004018080602001828103825260218152602001806113386021913960400191505060405180910390fd5b809150505b92915050565b6112f56112e4600a8361124790919063ffffffff16565b60025461131890919063ffffffff16565b60028190555050565b60008282111561130d57600080fd5b818303905092915050565b60008082840190508381101561132d57600080fd5b809150509291505056fe536166654d6174683a206d756c7469706c69636174696f6e206f766572666c6f77a265627a7a723158207957c4c818917e58acb3a4e09d3bbc0e10b5734385deb026c7eeebae5e35a2ea64736f6c63430005100032",
  "source": "pragma solidity ^0.5.16;\n\nimport \"./SafeMath.sol\";\nimport \"./CherryToken.sol\";\n\ncontract CherryPool {\n  using SafeMath for uint256;\n\n  address private _owner;\n  CherryToken private _cherryToken;\n\n  uint256 private _availableRewards = 0;\n\n  mapping(address => uint256) private _liquidityTokenBalances;\n\n  constructor(CherryToken cherryToken) public {\n    _cherryToken = cherryToken;\n    _owner = msg.sender;\n  }\n\n  function () external payable {}\n\n  function getEthBalance() public view returns (uint256 balance) {\n    return address(this).balance;\n  }\n\n  function getCtnBalance() public view returns (uint256 balance) {\n    return _cherryToken.balanceOf(address(this));\n  }\n\n  function getAvailableRewards() public view returns (uint256 rewards) {\n    return _availableRewards;\n  }\n\n  function getLiquidityTokenBalance(address owner) public view returns (uint256 funds) {\n    return _liquidityTokenBalances[owner];\n  }\n\n  function addLiquidity(uint256 ctnAmount, uint256 liquidityTokenAmount) public payable {\n    require(msg.value > 0, \"ETH amount cannot be 0\");\n    require(_cherryToken.balanceOf(msg.sender) >= ctnAmount, \"not enough CTN funds\");\n    _cherryToken.transferFrom(msg.sender, address(this), ctnAmount);\n    _liquidityTokenBalances[msg.sender] = _liquidityTokenBalances[msg.sender].add(liquidityTokenAmount);\n  }\n\n  function removeLiquidity(uint256 ethAmount, uint256 ctnAmount, uint256 liquidityTokenAmount, uint256 totalLiquidityTokens) public {\n    require(ethAmount > 0, \"eth amount cannot be 0\");\n    require(ctnAmount > 0, \"ctn amount cannot be 0\");\n    require(getEthBalance() >= ethAmount, \"not enough ETH in pool\");\n    require(getCtnBalance() >= ctnAmount, \"not enough CTN in pool\");\n    require(_liquidityTokenBalances[msg.sender] > liquidityTokenAmount, \"not enough liquidity tokens\");\n    uint256 ctnRewards = _availableRewards.mul(liquidityTokenAmount.div(totalLiquidityTokens));\n    _availableRewards = _availableRewards.sub(ctnRewards);\n    _cherryToken.mint(msg.sender, ctnRewards);\n    _cherryToken.transfer(msg.sender, ctnAmount);\n    msg.sender.transfer(ethAmount);\n    _liquidityTokenBalances[msg.sender] = _liquidityTokenBalances[msg.sender].sub(liquidityTokenAmount);\n  }\n\n  function swapEthToCtn(uint256 fees) public payable returns (uint256 receivedCtn) {\n    require(msg.value > 0, \"amount cannot be 0\");\n    uint256 ctnAmount = getCtnBalance().div(getEthBalance()).mul(msg.value);\n    _addFees(fees);\n    require(getCtnBalance() >= ctnAmount, \"not enough funds available\");\n    _cherryToken.transfer(msg.sender, ctnAmount);\n    return ctnAmount;\n  }\n\n  function swapCtnToEth(uint256 amount, uint256 fees) public returns (uint256 receivedEth) {\n    require(amount > 0, \"amount cannot be 0\");\n    uint256 ethAmount = getEthBalance().div(getCtnBalance()).mul(amount);\n    _addFees(fees);\n    require(getEthBalance() >= ethAmount.sub(fees), \"not enough funds available\");\n    _cherryToken.transferFrom(msg.sender, address(this), amount);\n    msg.sender.transfer(ethAmount);\n    return ethAmount;\n  }\n\n  function _addFees(uint256 amount) private {\n    _availableRewards = _availableRewards.add(amount.mul(10));\n  }\n}",
  "sourcePath": "/Users/johannes/Documents/Projects/github/cherrypool/contracts/CherryPool.sol",
  "compiler": {
    "name": "solc",
    "version": "0.5.16+commit.9c3226ce.Emscripten.clang"
  },
  "schemaVersion": "3.2.3",
  "updatedAt": "2021-01-28T03:01:10.025Z",
  "devdoc": {
    "methods": {}
  },
  "userdoc": {
    "methods": {}
  }
}