{
  "contractName": "CherrySwap",
  "abi": [
    {
      "inputs": [
        {
          "internalType": "contract CherryToken",
          "name": "cherryToken",
          "type": "address"
        },
        {
          "internalType": "contract CherryLiquidity",
          "name": "cherryLiquidity",
          "type": "address"
        }
      ],
      "payable": false,
      "stateMutability": "nonpayable",
      "type": "constructor"
    },
    {
      "payable": true,
      "stateMutability": "payable",
      "type": "fallback"
    },
    {
      "constant": false,
      "inputs": [],
      "name": "ethToCtn",
      "outputs": [],
      "payable": true,
      "stateMutability": "payable",
      "type": "function"
    },
    {
      "constant": false,
      "inputs": [
        {
          "internalType": "uint256",
          "name": "amount",
          "type": "uint256"
        }
      ],
      "name": "ctnToEth",
      "outputs": [],
      "payable": false,
      "stateMutability": "nonpayable",
      "type": "function"
    }
  ],
  "bytecode": "0x608060405234801561001057600080fd5b5060405161086c38038061086c8339818101604052604081101561003357600080fd5b81019080805190602001909291908051906020019092919050505081600160006101000a81548173ffffffffffffffffffffffffffffffffffffffff021916908373ffffffffffffffffffffffffffffffffffffffff16021790555080600260006101000a81548173ffffffffffffffffffffffffffffffffffffffff021916908373ffffffffffffffffffffffffffffffffffffffff160217905550336000806101000a81548173ffffffffffffffffffffffffffffffffffffffff021916908373ffffffffffffffffffffffffffffffffffffffff160217905550505061074b806101216000396000f3fe6080604052600436106100295760003560e01c8063280f22f6146100335780639faf7e9d1461003d575b610031610078565b005b61003b610078565b005b34801561004957600080fd5b506100766004803603602081101561006057600080fd5b810190808035906020019092919050505061035a565b005b600034116100ee576040517f08c379a00000000000000000000000000000000000000000000000000000000081526004018080602001828103825260128152602001807f616d6f756e742063616e6e6f742062652030000000000000000000000000000081525060200191505060405180910390fd5b600061271060023402816100fe57fe5b0490506000816103e8340203905080600260009054906101000a900473ffffffffffffffffffffffffffffffffffffffff1673ffffffffffffffffffffffffffffffffffffffff166396714ef46040518163ffffffff1660e01b815260040160206040518083038186803b15801561017557600080fd5b505afa158015610189573d6000803e3d6000fd5b505050506040513d602081101561019f57600080fd5b81019080805190602001909291905050501015610224576040517f08c379a000000000000000000000000000000000000000000000000000000000815260040180806020018281038252601a8152602001807f6e6f7420656e6f7567682066756e647320617661696c61626c6500000000000081525060200191505060405180910390fd5b600260009054906101000a900473ffffffffffffffffffffffffffffffffffffffff1673ffffffffffffffffffffffffffffffffffffffff166108fc349081150290604051600060405180830381858888f1935050505015801561028c573d6000803e3d6000fd5b50600260009054906101000a900473ffffffffffffffffffffffffffffffffffffffff1673ffffffffffffffffffffffffffffffffffffffff16639eb5c34d3383856040518463ffffffff1660e01b8152600401808473ffffffffffffffffffffffffffffffffffffffff1673ffffffffffffffffffffffffffffffffffffffff1681526020018381526020018281526020019350505050600060405180830381600087803b15801561033e57600080fd5b505af1158015610352573d6000803e3d6000fd5b505050505050565b600081116103d0576040517f08c379a00000000000000000000000000000000000000000000000000000000081526004018080602001828103825260128152602001807f616d6f756e742063616e6e6f742062652030000000000000000000000000000081525060200191505060405180910390fd5b600061271060028302816103e057fe5b04905060006103e8828403816103f257fe5b04905080600260009054906101000a900473ffffffffffffffffffffffffffffffffffffffff1673ffffffffffffffffffffffffffffffffffffffff166370ed0ada6040518163ffffffff1660e01b815260040160206040518083038186803b15801561045e57600080fd5b505afa158015610472573d6000803e3d6000fd5b505050506040513d602081101561048857600080fd5b8101908080519060200190929190505050101561050d576040517f08c379a000000000000000000000000000000000000000000000000000000000815260040180806020018281038252601a8152602001807f6e6f7420656e6f7567682066756e647320617661696c61626c6500000000000081525060200191505060405180910390fd5b600160009054906101000a900473ffffffffffffffffffffffffffffffffffffffff1673ffffffffffffffffffffffffffffffffffffffff166323b872dd33600260009054906101000a900473ffffffffffffffffffffffffffffffffffffffff16866040518463ffffffff1660e01b8152600401808473ffffffffffffffffffffffffffffffffffffffff1673ffffffffffffffffffffffffffffffffffffffff1681526020018373ffffffffffffffffffffffffffffffffffffffff1673ffffffffffffffffffffffffffffffffffffffff1681526020018281526020019350505050602060405180830381600087803b15801561060c57600080fd5b505af1158015610620573d6000803e3d6000fd5b505050506040513d602081101561063657600080fd5b810190808051906020019092919050505050600260009054906101000a900473ffffffffffffffffffffffffffffffffffffffff1673ffffffffffffffffffffffffffffffffffffffff1663d17d2d713383856040518463ffffffff1660e01b8152600401808473ffffffffffffffffffffffffffffffffffffffff1673ffffffffffffffffffffffffffffffffffffffff1681526020018381526020018281526020019350505050600060405180830381600087803b1580156106f957600080fd5b505af115801561070d573d6000803e3d6000fd5b5050505050505056fea265627a7a7231582076ca546fdbc234167fd853f1b2e6388a30cd799d408fea5dbb2dbdf89d22528864736f6c63430005100032",
  "source": "pragma solidity ^0.5.0;\n\nimport \"./CherryToken.sol\";\nimport \"./CherryLiquidity.sol\";\n\ncontract CherrySwap {\n  address private _owner;\n  CherryToken private _cherryToken;\n  CherryLiquidity private _cherryLiquidity;\n\n  constructor(CherryToken cherryToken, CherryLiquidity cherryLiquidity) public {\n    _cherryToken = cherryToken;\n    _cherryLiquidity = cherryLiquidity;\n    _owner = msg.sender;\n  }\n\n  function () external payable {\n    ethToCtn();\n  }\n\n  function ethToCtn() public payable {\n    require(msg.value > 0, \"amount cannot be 0\");\n    uint256 fees = msg.value * 2 / 10000; // 2%\n    uint256 ctnAmount = (msg.value * 1000) - fees; // TODO: refactor\n    require(_cherryLiquidity.getCtnBalance() >= ctnAmount, \"not enough funds available\");\n    address(_cherryLiquidity).transfer(msg.value);\n    _cherryLiquidity.processEthToCtn(msg.sender, ctnAmount, fees);\n  }\n\n  function ctnToEth(uint256 amount) public {\n    require(amount > 0, \"amount cannot be 0\");\n    uint256 fees = amount * 2 / 10000; // 2%\n    uint256 ethAmount = (amount - fees) / 1000; // TODO: refactor\n    require(_cherryLiquidity.getEthBalance() >= ethAmount, \"not enough funds available\");\n    _cherryToken.transferFrom(msg.sender, address(_cherryLiquidity), amount);\n    _cherryLiquidity.processCtnToEth(msg.sender, ethAmount, fees);\n  }\n}",
  "sourcePath": "/Users/johannes/Documents/Projects/web-projects/cherrypool/contracts/CherrySwap.sol",
  "compiler": {
    "name": "solc",
    "version": "0.5.16+commit.9c3226ce.Emscripten.clang"
  },
  "schemaVersion": "3.2.3",
  "updatedAt": "2021-01-18T21:15:38.946Z",
  "devdoc": {
    "methods": {}
  },
  "userdoc": {
    "methods": {}
  }
}