{
  "contractName": "CherryLiquidity",
  "abi": [
    {
      "inputs": [
        {
          "internalType": "contract CherryToken",
          "name": "_cherryToken",
          "type": "address"
        },
        {
          "internalType": "uint256",
          "name": "_initialEthSupply",
          "type": "uint256"
        },
        {
          "internalType": "uint256",
          "name": "_initialCtnSupply",
          "type": "uint256"
        }
      ],
      "payable": false,
      "stateMutability": "nonpayable",
      "type": "constructor"
    },
    {
      "constant": true,
      "inputs": [],
      "name": "cherryToken",
      "outputs": [
        {
          "internalType": "contract CherryToken",
          "name": "",
          "type": "address"
        }
      ],
      "payable": false,
      "stateMutability": "view",
      "type": "function"
    },
    {
      "constant": true,
      "inputs": [],
      "name": "name",
      "outputs": [
        {
          "internalType": "string",
          "name": "",
          "type": "string"
        }
      ],
      "payable": false,
      "stateMutability": "view",
      "type": "function"
    },
    {
      "constant": true,
      "inputs": [],
      "name": "owner",
      "outputs": [
        {
          "internalType": "address",
          "name": "",
          "type": "address"
        }
      ],
      "payable": false,
      "stateMutability": "view",
      "type": "function"
    },
    {
      "constant": true,
      "inputs": [],
      "name": "getEthBalance",
      "outputs": [
        {
          "internalType": "uint256",
          "name": "balance",
          "type": "uint256"
        }
      ],
      "payable": false,
      "stateMutability": "view",
      "type": "function"
    },
    {
      "constant": true,
      "inputs": [],
      "name": "getCtnBalance",
      "outputs": [
        {
          "internalType": "uint256",
          "name": "balance",
          "type": "uint256"
        }
      ],
      "payable": false,
      "stateMutability": "view",
      "type": "function"
    },
    {
      "constant": false,
      "inputs": [
        {
          "internalType": "uint256",
          "name": "_ethAmount",
          "type": "uint256"
        },
        {
          "internalType": "uint256",
          "name": "_ctnAmount",
          "type": "uint256"
        }
      ],
      "name": "addLiquidity",
      "outputs": [],
      "payable": false,
      "stateMutability": "nonpayable",
      "type": "function"
    },
    {
      "constant": false,
      "inputs": [
        {
          "internalType": "uint256",
          "name": "_ethAmount",
          "type": "uint256"
        },
        {
          "internalType": "uint256",
          "name": "_ctnAmount",
          "type": "uint256"
        }
      ],
      "name": "removeLiquidity",
      "outputs": [],
      "payable": false,
      "stateMutability": "nonpayable",
      "type": "function"
    }
  ],
  "bytecode": "0x60806040526040518060400160405280600f81526020017f4368657272794c697175696469747900000000000000000000000000000000008152506000908051906020019061004f92919061013c565b5034801561005c57600080fd5b506040516105703803806105708339818101604052606081101561007f57600080fd5b8101908080519060200190929190805190602001909291908051906020019092919050505082600260006101000a81548173ffffffffffffffffffffffffffffffffffffffff021916908373ffffffffffffffffffffffffffffffffffffffff160217905550816003819055508060048190555033600160006101000a81548173ffffffffffffffffffffffffffffffffffffffff021916908373ffffffffffffffffffffffffffffffffffffffff1602179055505050506101e1565b828054600181600116156101000203166002900490600052602060002090601f016020900481019282601f1061017d57805160ff19168380011785556101ab565b828001600101855582156101ab579182015b828111156101aa57825182559160200191906001019061018f565b5b5090506101b891906101bc565b5090565b6101de91905b808211156101da5760008160009055506001016101c2565b5090565b90565b610380806101f06000396000f3fe608060405234801561001057600080fd5b506004361061007d5760003560e01c80638da5cb5b1161005b5780638da5cb5b1461016d57806396714ef4146101b75780639cd441da146101d55780639d7de6b31461020d5761007d565b806306fdde0314610082578063084b13901461010557806370ed0ada1461014f575b600080fd5b61008a610245565b6040518080602001828103825283818151815260200191508051906020019080838360005b838110156100ca5780820151818401526020810190506100af565b50505050905090810190601f1680156100f75780820380516001836020036101000a031916815260200191505b509250505060405180910390f35b61010d6102e3565b604051808273ffffffffffffffffffffffffffffffffffffffff1673ffffffffffffffffffffffffffffffffffffffff16815260200191505060405180910390f35b610157610309565b6040518082815260200191505060405180910390f35b610175610313565b604051808273ffffffffffffffffffffffffffffffffffffffff1673ffffffffffffffffffffffffffffffffffffffff16815260200191505060405180910390f35b6101bf610339565b6040518082815260200191505060405180910390f35b61020b600480360360408110156101eb57600080fd5b810190808035906020019092919080359060200190929190505050610343565b005b6102436004803603604081101561022357600080fd5b810190808035906020019092919080359060200190929190505050610347565b005b60008054600181600116156101000203166002900480601f0160208091040260200160405190810160405280929190818152602001828054600181600116156101000203166002900480156102db5780601f106102b0576101008083540402835291602001916102db565b820191906000526020600020905b8154815290600101906020018083116102be57829003601f168201915b505050505081565b600260009054906101000a900473ffffffffffffffffffffffffffffffffffffffff1681565b6000600354905090565b600160009054906101000a900473ffffffffffffffffffffffffffffffffffffffff1681565b6000600454905090565b5050565b505056fea265627a7a723158207b962655544bbea422d10145c7d774b0c2207f0cfba3abd6ad9e01f9df942c2964736f6c63430005100032",
  "source": "pragma solidity ^0.5.0;\n\nimport \"./CherryToken.sol\";\n\ncontract CherryLiquidity {\n  string public name = \"CherryLiquidity\";\n  address public owner;\n  CherryToken public cherryToken;\n  uint256 private ethBalance;\n  uint256 private ctnBalance;\n\n  constructor(CherryToken _cherryToken, uint256 _initialEthSupply, uint256 _initialCtnSupply) public {\n    cherryToken = _cherryToken;\n    ethBalance = _initialEthSupply;\n    ctnBalance = _initialCtnSupply;\n    owner = msg.sender;\n  }\n\n  function getEthBalance() public view returns (uint balance) {\n    return ethBalance;\n  }\n\n  function getCtnBalance() public view returns (uint balance) {\n    return ctnBalance;\n  }\n\n  function addLiquidity(uint _ethAmount, uint _ctnAmount) public {\n\n  }\n\n  function removeLiquidity(uint _ethAmount, uint _ctnAmount) public {\n\n  }\n}",
  "sourcePath": "/Users/johannes/Documents/Projects/web-projects/cherrypool/contracts/CherryLiquidity.sol",
  "compiler": {
    "name": "solc",
    "version": "0.5.16+commit.9c3226ce.Emscripten.clang"
  },
  "schemaVersion": "3.2.3",
  "updatedAt": "2021-01-08T00:36:33.036Z",
  "networkType": "ethereum",
  "devdoc": {
    "methods": {}
  },
  "userdoc": {
    "methods": {}
  }
}