{
  "contractName": "CherryPool",
  "abi": [
    {
      "inputs": [
        {
          "internalType": "contract CherryToken",
          "name": "cherryToken",
          "type": "address"
        }
      ],
      "payable": false,
      "stateMutability": "nonpayable",
      "type": "constructor"
    },
    {
      "payable": true,
      "stateMutability": "payable",
      "type": "fallback"
    },
    {
      "constant": true,
      "inputs": [],
      "name": "getEthBalance",
      "outputs": [
        {
          "internalType": "uint256",
          "name": "balance",
          "type": "uint256"
        }
      ],
      "payable": false,
      "stateMutability": "view",
      "type": "function"
    },
    {
      "constant": true,
      "inputs": [],
      "name": "getCtnBalance",
      "outputs": [
        {
          "internalType": "uint256",
          "name": "balance",
          "type": "uint256"
        }
      ],
      "payable": false,
      "stateMutability": "view",
      "type": "function"
    },
    {
      "constant": true,
      "inputs": [],
      "name": "getAvailableRewards",
      "outputs": [
        {
          "internalType": "uint256",
          "name": "rewards",
          "type": "uint256"
        }
      ],
      "payable": false,
      "stateMutability": "view",
      "type": "function"
    },
    {
      "constant": true,
      "inputs": [
        {
          "internalType": "address",
          "name": "owner",
          "type": "address"
        }
      ],
      "name": "getLiquidityTokenBalance",
      "outputs": [
        {
          "internalType": "uint256",
          "name": "funds",
          "type": "uint256"
        }
      ],
      "payable": false,
      "stateMutability": "view",
      "type": "function"
    },
    {
      "constant": false,
      "inputs": [
        {
          "internalType": "uint256",
          "name": "ctnAmount",
          "type": "uint256"
        },
        {
          "internalType": "uint256",
          "name": "liquidityTokenAmount",
          "type": "uint256"
        }
      ],
      "name": "addLiquidity",
      "outputs": [],
      "payable": true,
      "stateMutability": "payable",
      "type": "function"
    },
    {
      "constant": false,
      "inputs": [
        {
          "internalType": "uint256",
          "name": "ethAmount",
          "type": "uint256"
        },
        {
          "internalType": "uint256",
          "name": "ctnAmount",
          "type": "uint256"
        },
        {
          "internalType": "uint256",
          "name": "liquidityTokenAmount",
          "type": "uint256"
        },
        {
          "internalType": "uint256",
          "name": "totalLiquidityTokens",
          "type": "uint256"
        }
      ],
      "name": "removeLiquidity",
      "outputs": [],
      "payable": false,
      "stateMutability": "nonpayable",
      "type": "function"
    },
    {
      "constant": false,
      "inputs": [
        {
          "internalType": "uint256",
          "name": "ctnOutput",
          "type": "uint256"
        },
        {
          "internalType": "uint256",
          "name": "fees",
          "type": "uint256"
        }
      ],
      "name": "swapEthToCtn",
      "outputs": [],
      "payable": true,
      "stateMutability": "payable",
      "type": "function"
    },
    {
      "constant": false,
      "inputs": [
        {
          "internalType": "uint256",
          "name": "ctnInput",
          "type": "uint256"
        },
        {
          "internalType": "uint256",
          "name": "ethOutput",
          "type": "uint256"
        },
        {
          "internalType": "uint256",
          "name": "fees",
          "type": "uint256"
        }
      ],
      "name": "swapCtnToEth",
      "outputs": [],
      "payable": false,
      "stateMutability": "nonpayable",
      "type": "function"
    }
  ],
  "bytecode": "0x6080604052600060025534801561001557600080fd5b506040516113c73803806113c78339818101604052602081101561003857600080fd5b810190808051906020019092919050505080600160006101000a81548173ffffffffffffffffffffffffffffffffffffffff021916908373ffffffffffffffffffffffffffffffffffffffff160217905550336000806101000a81548173ffffffffffffffffffffffffffffffffffffffff021916908373ffffffffffffffffffffffffffffffffffffffff160217905550506112ed806100da6000396000f3fe60806040526004361061007b5760003560e01c8063c61f09911161004e578063c61f099114610143578063f88bf15a146101a8578063f88f1ae914610201578063fc9c99ac146102505761007b565b806370ed0ada1461007d57806396714ef4146100a85780639cd441da146100d3578063b35419dd1461010b575b005b34801561008957600080fd5b5061009261027b565b6040518082815260200191505060405180910390f35b3480156100b457600080fd5b506100bd61029a565b6040518082815260200191505060405180910390f35b610109600480360360408110156100e957600080fd5b81019080803590602001909291908035906020019092919050505061037b565b005b6101416004803603604081101561012157600080fd5b8101908080359060200190929190803590602001909291905050506106f2565b005b34801561014f57600080fd5b506101926004803603602081101561016657600080fd5b81019080803573ffffffffffffffffffffffffffffffffffffffff1690602001909291905050506108d7565b6040518082815260200191505060405180910390f35b3480156101b457600080fd5b506101ff600480360360808110156101cb57600080fd5b8101908080359060200190929190803590602001909291908035906020019092919080359060200190929190505050610920565b005b34801561020d57600080fd5b5061024e6004803603606081101561022457600080fd5b81019080803590602001909291908035906020019092919080359060200190929190505050610ead565b005b34801561025c57600080fd5b5061026561110e565b6040518082815260200191505060405180910390f35b60003073ffffffffffffffffffffffffffffffffffffffff1631905090565b6000600160009054906101000a900473ffffffffffffffffffffffffffffffffffffffff1673ffffffffffffffffffffffffffffffffffffffff166370a08231306040518263ffffffff1660e01b8152600401808273ffffffffffffffffffffffffffffffffffffffff1673ffffffffffffffffffffffffffffffffffffffff16815260200191505060206040518083038186803b15801561033b57600080fd5b505afa15801561034f573d6000803e3d6000fd5b505050506040513d602081101561036557600080fd5b8101908080519060200190929190505050905090565b600034116103f1576040517f08c379a00000000000000000000000000000000000000000000000000000000081526004018080602001828103825260168152602001807f45544820616d6f756e742063616e6e6f7420626520300000000000000000000081525060200191505060405180910390fd5b81600160009054906101000a900473ffffffffffffffffffffffffffffffffffffffff1673ffffffffffffffffffffffffffffffffffffffff166370a08231336040518263ffffffff1660e01b8152600401808273ffffffffffffffffffffffffffffffffffffffff1673ffffffffffffffffffffffffffffffffffffffff16815260200191505060206040518083038186803b15801561049157600080fd5b505afa1580156104a5573d6000803e3d6000fd5b505050506040513d60208110156104bb57600080fd5b81019080805190602001909291905050501015610540576040517f08c379a00000000000000000000000000000000000000000000000000000000081526004018080602001828103825260148152602001807f6e6f7420656e6f7567682043544e2066756e647300000000000000000000000081525060200191505060405180910390fd5b600160009054906101000a900473ffffffffffffffffffffffffffffffffffffffff1673ffffffffffffffffffffffffffffffffffffffff166323b872dd3330856040518463ffffffff1660e01b8152600401808473ffffffffffffffffffffffffffffffffffffffff1673ffffffffffffffffffffffffffffffffffffffff1681526020018373ffffffffffffffffffffffffffffffffffffffff1673ffffffffffffffffffffffffffffffffffffffff1681526020018281526020019350505050602060405180830381600087803b15801561061d57600080fd5b505af1158015610631573d6000803e3d6000fd5b505050506040513d602081101561064757600080fd5b8101908080519060200190929190505050506106ab81600360003373ffffffffffffffffffffffffffffffffffffffff1673ffffffffffffffffffffffffffffffffffffffff1681526020019081526020016000205461111890919063ffffffff16565b600360003373ffffffffffffffffffffffffffffffffffffffff1673ffffffffffffffffffffffffffffffffffffffff168152602001908152602001600020819055505050565b60003411610768576040517f08c379a00000000000000000000000000000000000000000000000000000000081526004018080602001828103825260128152602001807f616d6f756e742063616e6e6f742062652030000000000000000000000000000081525060200191505060405180910390fd5b61077181611137565b8161077a61029a565b10156107ee576040517f08c379a000000000000000000000000000000000000000000000000000000000815260040180806020018281038252601a8152602001807f6e6f7420656e6f7567682066756e647320617661696c61626c6500000000000081525060200191505060405180910390fd5b600160009054906101000a900473ffffffffffffffffffffffffffffffffffffffff1673ffffffffffffffffffffffffffffffffffffffff1663a9059cbb33846040518363ffffffff1660e01b8152600401808373ffffffffffffffffffffffffffffffffffffffff1673ffffffffffffffffffffffffffffffffffffffff16815260200182815260200192505050602060405180830381600087803b15801561089757600080fd5b505af11580156108ab573d6000803e3d6000fd5b505050506040513d60208110156108c157600080fd5b8101908080519060200190929190505050505050565b6000600360008373ffffffffffffffffffffffffffffffffffffffff1673ffffffffffffffffffffffffffffffffffffffff168152602001908152602001600020549050919050565b60008411610996576040517f08c379a00000000000000000000000000000000000000000000000000000000081526004018080602001828103825260168152602001807f65746820616d6f756e742063616e6e6f7420626520300000000000000000000081525060200191505060405180910390fd5b60008311610a0c576040517f08c379a00000000000000000000000000000000000000000000000000000000081526004018080602001828103825260168152602001807f63746e20616d6f756e742063616e6e6f7420626520300000000000000000000081525060200191505060405180910390fd5b83610a1561027b565b1015610a89576040517f08c379a00000000000000000000000000000000000000000000000000000000081526004018080602001828103825260168152602001807f6e6f7420656e6f7567682045544820696e20706f6f6c0000000000000000000081525060200191505060405180910390fd5b82610a9261029a565b1015610b06576040517f08c379a00000000000000000000000000000000000000000000000000000000081526004018080602001828103825260168152602001807f6e6f7420656e6f7567682043544e20696e20706f6f6c0000000000000000000081525060200191505060405180910390fd5b81600360003373ffffffffffffffffffffffffffffffffffffffff1673ffffffffffffffffffffffffffffffffffffffff1681526020019081526020016000205411610bba576040517f08c379a000000000000000000000000000000000000000000000000000000000815260040180806020018281038252601b8152602001807f6e6f7420656e6f756768206c697175696469747920746f6b656e73000000000081525060200191505060405180910390fd5b6000610be3610bd2838561116890919063ffffffff16565b6002546111f790919063ffffffff16565b9050610bfa8160025461127d90919063ffffffff16565b600281905550600160009054906101000a900473ffffffffffffffffffffffffffffffffffffffff1673ffffffffffffffffffffffffffffffffffffffff166340c10f1933836040518363ffffffff1660e01b8152600401808373ffffffffffffffffffffffffffffffffffffffff1673ffffffffffffffffffffffffffffffffffffffff16815260200182815260200192505050602060405180830381600087803b158015610ca957600080fd5b505af1158015610cbd573d6000803e3d6000fd5b505050506040513d6020811015610cd357600080fd5b810190808051906020019092919050505050600160009054906101000a900473ffffffffffffffffffffffffffffffffffffffff1673ffffffffffffffffffffffffffffffffffffffff1663a9059cbb33866040518363ffffffff1660e01b8152600401808373ffffffffffffffffffffffffffffffffffffffff1673ffffffffffffffffffffffffffffffffffffffff16815260200182815260200192505050602060405180830381600087803b158015610d8e57600080fd5b505af1158015610da2573d6000803e3d6000fd5b505050506040513d6020811015610db857600080fd5b8101908080519060200190929190505050503373ffffffffffffffffffffffffffffffffffffffff166108fc869081150290604051600060405180830381858888f19350505050158015610e10573d6000803e3d6000fd5b50610e6383600360003373ffffffffffffffffffffffffffffffffffffffff1673ffffffffffffffffffffffffffffffffffffffff1681526020019081526020016000205461127d90919063ffffffff16565b600360003373ffffffffffffffffffffffffffffffffffffffff1673ffffffffffffffffffffffffffffffffffffffff168152602001908152602001600020819055505050505050565b60008311610f23576040517f08c379a00000000000000000000000000000000000000000000000000000000081526004018080602001828103825260128152602001807f616d6f756e742063616e6e6f742062652030000000000000000000000000000081525060200191505060405180910390fd5b610f2c81611137565b81610f3561027b565b1015610fa9576040517f08c379a000000000000000000000000000000000000000000000000000000000815260040180806020018281038252601a8152602001807f6e6f7420656e6f7567682066756e647320617661696c61626c6500000000000081525060200191505060405180910390fd5b600160009054906101000a900473ffffffffffffffffffffffffffffffffffffffff1673ffffffffffffffffffffffffffffffffffffffff166323b872dd3330866040518463ffffffff1660e01b8152600401808473ffffffffffffffffffffffffffffffffffffffff1673ffffffffffffffffffffffffffffffffffffffff1681526020018373ffffffffffffffffffffffffffffffffffffffff1673ffffffffffffffffffffffffffffffffffffffff1681526020018281526020019350505050602060405180830381600087803b15801561108657600080fd5b505af115801561109a573d6000803e3d6000fd5b505050506040513d60208110156110b057600080fd5b8101908080519060200190929190505050503373ffffffffffffffffffffffffffffffffffffffff166108fc839081150290604051600060405180830381858888f19350505050158015611108573d6000803e3d6000fd5b50505050565b6000600254905090565b60008082840190508381101561112d57600080fd5b8091505092915050565b61115f61114e600a836111f790919063ffffffff16565b60025461111890919063ffffffff16565b60028190555050565b60008082116111df576040517f08c379a000000000000000000000000000000000000000000000000000000000815260040180806020018281038252601a8152602001807f536166654d6174683a206469766973696f6e206279207a65726f00000000000081525060200191505060405180910390fd5b60008284816111ea57fe5b0490508091505092915050565b60008083141561120a5760009050611277565b600082840290508284828161121b57fe5b0414611272576040517f08c379a00000000000000000000000000000000000000000000000000000000081526004018080602001828103825260218152602001806112986021913960400191505060405180910390fd5b809150505b92915050565b60008282111561128c57600080fd5b81830390509291505056fe536166654d6174683a206d756c7469706c69636174696f6e206f766572666c6f77a265627a7a72315820c2f2eaa44835132c7f56d50515874bc0a5597bf97307b90b48fa761dd45a43db64736f6c63430005100032",
  "source": "pragma solidity ^0.5.16;\n\nimport \"./SafeMath.sol\";\nimport \"./CherryToken.sol\";\n\ncontract CherryPool {\n  using SafeMath for uint256;\n\n  address private _owner;\n  CherryToken private _cherryToken;\n\n  uint256 private _availableRewards = 0;\n\n  mapping(address => uint256) private _liquidityTokenBalances;\n\n  constructor(CherryToken cherryToken) public {\n    _cherryToken = cherryToken;\n    _owner = msg.sender;\n  }\n\n  function () external payable {}\n\n  function getEthBalance() public view returns (uint256 balance) {\n    return address(this).balance;\n  }\n\n  function getCtnBalance() public view returns (uint256 balance) {\n    return _cherryToken.balanceOf(address(this));\n  }\n\n  function getAvailableRewards() public view returns (uint256 rewards) {\n    return _availableRewards;\n  }\n\n  function getLiquidityTokenBalance(address owner) public view returns (uint256 funds) {\n    return _liquidityTokenBalances[owner];\n  }\n\n  function addLiquidity(uint256 ctnAmount, uint256 liquidityTokenAmount) public payable {\n    require(msg.value > 0, \"ETH amount cannot be 0\");\n    require(_cherryToken.balanceOf(msg.sender) >= ctnAmount, \"not enough CTN funds\");\n    _cherryToken.transferFrom(msg.sender, address(this), ctnAmount);\n    _liquidityTokenBalances[msg.sender] = _liquidityTokenBalances[msg.sender].add(liquidityTokenAmount);\n  }\n\n  function removeLiquidity(uint256 ethAmount, uint256 ctnAmount, uint256 liquidityTokenAmount, uint256 totalLiquidityTokens) public {\n    require(ethAmount > 0, \"eth amount cannot be 0\");\n    require(ctnAmount > 0, \"ctn amount cannot be 0\");\n    require(getEthBalance() >= ethAmount, \"not enough ETH in pool\");\n    require(getCtnBalance() >= ctnAmount, \"not enough CTN in pool\");\n    require(_liquidityTokenBalances[msg.sender] > liquidityTokenAmount, \"not enough liquidity tokens\");\n    uint256 ctnRewards = _availableRewards.mul(liquidityTokenAmount.div(totalLiquidityTokens));\n    _availableRewards = _availableRewards.sub(ctnRewards);\n    _cherryToken.mint(msg.sender, ctnRewards);\n    _cherryToken.transfer(msg.sender, ctnAmount);\n    msg.sender.transfer(ethAmount);\n    _liquidityTokenBalances[msg.sender] = _liquidityTokenBalances[msg.sender].sub(liquidityTokenAmount);\n  }\n\n  function swapEthToCtn(uint256 ctnOutput, uint256 fees) public payable {\n    require(msg.value > 0, \"amount cannot be 0\");\n    _addFees(fees);\n    require(getCtnBalance() >= ctnOutput, \"not enough funds available\");\n    _cherryToken.transfer(msg.sender, ctnOutput);\n  }\n\n  function swapCtnToEth(uint256 ctnInput, uint ethOutput, uint256 fees) public {\n    require(ctnInput > 0, \"amount cannot be 0\");\n    _addFees(fees);\n    require(getEthBalance() >= ethOutput, \"not enough funds available\");\n    _cherryToken.transferFrom(msg.sender, address(this), ctnInput);\n    msg.sender.transfer(ethOutput);\n  }\n\n  function _addFees(uint256 amount) private {\n    _availableRewards = _availableRewards.add(amount.mul(10));\n  }\n}",
  "sourcePath": "/Users/johannes/Documents/Projects/github/cherrypool/contracts/CherryPool.sol",
  "compiler": {
    "name": "solc",
    "version": "0.5.16+commit.9c3226ce.Emscripten.clang"
  },
  "schemaVersion": "3.2.3",
  "updatedAt": "2021-01-29T08:44:28.205Z",
  "networkType": "ethereum",
  "devdoc": {
    "methods": {}
  },
  "userdoc": {
    "methods": {}
  }
}