{
  "contractName": "CherryLiquidity",
  "abi": [
    {
      "inputs": [
        {
          "internalType": "contract CherryToken",
          "name": "cherryToken",
          "type": "address"
        },
        {
          "internalType": "contract CherrySwap",
          "name": "cherrySwap",
          "type": "address"
        },
        {
          "internalType": "uint256",
          "name": "initialEthSupply",
          "type": "uint256"
        },
        {
          "internalType": "uint256",
          "name": "initialCtnSupply",
          "type": "uint256"
        }
      ],
      "payable": false,
      "stateMutability": "nonpayable",
      "type": "constructor"
    },
    {
      "payable": true,
      "stateMutability": "payable",
      "type": "fallback"
    },
    {
      "constant": true,
      "inputs": [],
      "name": "getEthBalance",
      "outputs": [
        {
          "internalType": "uint256",
          "name": "balance",
          "type": "uint256"
        }
      ],
      "payable": false,
      "stateMutability": "view",
      "type": "function"
    },
    {
      "constant": true,
      "inputs": [],
      "name": "getCtnBalance",
      "outputs": [
        {
          "internalType": "uint256",
          "name": "balance",
          "type": "uint256"
        }
      ],
      "payable": false,
      "stateMutability": "view",
      "type": "function"
    },
    {
      "constant": true,
      "inputs": [],
      "name": "getCollectedFees",
      "outputs": [
        {
          "internalType": "uint256",
          "name": "fees",
          "type": "uint256"
        }
      ],
      "payable": false,
      "stateMutability": "view",
      "type": "function"
    },
    {
      "constant": false,
      "inputs": [],
      "name": "addEthLiquidity",
      "outputs": [],
      "payable": true,
      "stateMutability": "payable",
      "type": "function"
    },
    {
      "constant": false,
      "inputs": [
        {
          "internalType": "uint256",
          "name": "ethAmount",
          "type": "uint256"
        },
        {
          "internalType": "uint256",
          "name": "ctnAmount",
          "type": "uint256"
        }
      ],
      "name": "addLiquidity",
      "outputs": [],
      "payable": false,
      "stateMutability": "nonpayable",
      "type": "function"
    },
    {
      "constant": false,
      "inputs": [
        {
          "internalType": "uint256",
          "name": "ethAmount",
          "type": "uint256"
        },
        {
          "internalType": "uint256",
          "name": "ctnAmount",
          "type": "uint256"
        },
        {
          "internalType": "uint256",
          "name": "reward",
          "type": "uint256"
        }
      ],
      "name": "removeLiquidity",
      "outputs": [],
      "payable": false,
      "stateMutability": "nonpayable",
      "type": "function"
    },
    {
      "constant": true,
      "inputs": [
        {
          "internalType": "address",
          "name": "owner",
          "type": "address"
        }
      ],
      "name": "getPooledEthFunds",
      "outputs": [
        {
          "internalType": "uint256",
          "name": "funds",
          "type": "uint256"
        }
      ],
      "payable": false,
      "stateMutability": "view",
      "type": "function"
    },
    {
      "constant": true,
      "inputs": [
        {
          "internalType": "address",
          "name": "owner",
          "type": "address"
        }
      ],
      "name": "getPooledCtnFunds",
      "outputs": [
        {
          "internalType": "uint256",
          "name": "funds",
          "type": "uint256"
        }
      ],
      "payable": false,
      "stateMutability": "view",
      "type": "function"
    },
    {
      "constant": false,
      "inputs": [
        {
          "internalType": "address",
          "name": "recipient",
          "type": "address"
        },
        {
          "internalType": "uint256",
          "name": "ctnAmount",
          "type": "uint256"
        },
        {
          "internalType": "uint256",
          "name": "fees",
          "type": "uint256"
        }
      ],
      "name": "processEthToCtn",
      "outputs": [],
      "payable": false,
      "stateMutability": "nonpayable",
      "type": "function"
    },
    {
      "constant": false,
      "inputs": [
        {
          "internalType": "address payable",
          "name": "recipient",
          "type": "address"
        },
        {
          "internalType": "uint256",
          "name": "ethAmount",
          "type": "uint256"
        },
        {
          "internalType": "uint256",
          "name": "fees",
          "type": "uint256"
        }
      ],
      "name": "processCtnToEth",
      "outputs": [],
      "payable": false,
      "stateMutability": "nonpayable",
      "type": "function"
    }
  ],
  "bytecode": "0x6080604052600060055534801561001557600080fd5b5060405161176f38038061176f8339818101604052608081101561003857600080fd5b810190808051906020019092919080519060200190929190805190602001909291908051906020019092919050505083600160006101000a81548173ffffffffffffffffffffffffffffffffffffffff021916908373ffffffffffffffffffffffffffffffffffffffff16021790555082600260006101000a81548173ffffffffffffffffffffffffffffffffffffffff021916908373ffffffffffffffffffffffffffffffffffffffff1602179055508160038190555080600481905550600160009054906101000a900473ffffffffffffffffffffffffffffffffffffffff1673ffffffffffffffffffffffffffffffffffffffff166323b872dd3330846040518463ffffffff1660e01b8152600401808473ffffffffffffffffffffffffffffffffffffffff1673ffffffffffffffffffffffffffffffffffffffff1681526020018373ffffffffffffffffffffffffffffffffffffffff1673ffffffffffffffffffffffffffffffffffffffff1681526020018281526020019350505050602060405180830381600087803b1580156101d457600080fd5b505af11580156101e8573d6000803e3d6000fd5b505050506040513d60208110156101fe57600080fd5b810190808051906020019092919050505050336000806101000a81548173ffffffffffffffffffffffffffffffffffffffff021916908373ffffffffffffffffffffffffffffffffffffffff1602179055505050505061150c806102636000396000f3fe6080604052600436106100915760003560e01c806396714ef41161005957806396714ef4146101e15780639cd441da1461020c5780639eb5c34d14610251578063d17d2d71146102b6578063d54a8d181461031b57610091565b80630aa83786146100935780630fac4b26146100f8578063130b63881461015d57806370ed0ada14610167578063857620e114610192575b005b34801561009f57600080fd5b506100e2600480360360208110156100b657600080fd5b81019080803573ffffffffffffffffffffffffffffffffffffffff169060200190929190505050610346565b6040518082815260200191505060405180910390f35b34801561010457600080fd5b506101476004803603602081101561011b57600080fd5b81019080803573ffffffffffffffffffffffffffffffffffffffff16906020019092919050505061038f565b6040518082815260200191505060405180910390f35b6101656103d8565b005b34801561017357600080fd5b5061017c6104e5565b6040518082815260200191505060405180910390f35b34801561019e57600080fd5b506101df600480360360608110156101b557600080fd5b81019080803590602001909291908035906020019092919080359060200190929190505050610504565b005b3480156101ed57600080fd5b506101f6610b71565b6040518082815260200191505060405180910390f35b34801561021857600080fd5b5061024f6004803603604081101561022f57600080fd5b810190808035906020019092919080359060200190929190505050610c66565b005b34801561025d57600080fd5b506102b46004803603606081101561027457600080fd5b81019080803573ffffffffffffffffffffffffffffffffffffffff16906020019092919080359060200190929190803590602001909291905050506111bb565b005b3480156102c257600080fd5b50610319600480360360608110156102d957600080fd5b81019080803573ffffffffffffffffffffffffffffffffffffffff1690602001909291908035906020019092919080359060200190929190505050611354565b005b34801561032757600080fd5b5061033061144f565b6040518082815260200191505060405180910390f35b6000600760008373ffffffffffffffffffffffffffffffffffffffff1673ffffffffffffffffffffffffffffffffffffffff168152602001908152602001600020549050919050565b6000600660008373ffffffffffffffffffffffffffffffffffffffff1673ffffffffffffffffffffffffffffffffffffffff168152602001908152602001600020549050919050565b6000341161044e576040517f08c379a00000000000000000000000000000000000000000000000000000000081526004018080602001828103825260168152602001807f45544820616d6f756e742063616e6e6f7420626520300000000000000000000081525060200191505060405180910390fd5b6104a034600860003373ffffffffffffffffffffffffffffffffffffffff1673ffffffffffffffffffffffffffffffffffffffff1681526020019081526020016000205461145990919063ffffffff16565b600860003373ffffffffffffffffffffffffffffffffffffffff1673ffffffffffffffffffffffffffffffffffffffff16815260200190815260200160002081905550565b60003073ffffffffffffffffffffffffffffffffffffffff1631905090565b6000831161057a576040517f08c379a00000000000000000000000000000000000000000000000000000000081526004018080602001828103825260168152602001807f65746820616d6f756e742063616e6e6f7420626520300000000000000000000081525060200191505060405180910390fd5b600082116105f0576040517f08c379a00000000000000000000000000000000000000000000000000000000081526004018080602001828103825260168152602001807f63746e20616d6f756e742063616e6e6f7420626520300000000000000000000081525060200191505060405180910390fd5b826105f96104e5565b101561066d576040517f08c379a00000000000000000000000000000000000000000000000000000000081526004018080602001828103825260168152602001807f6e6f7420656e6f7567682045544820696e20706f6f6c0000000000000000000081525060200191505060405180910390fd5b81610676610b71565b10156106ea576040517f08c379a00000000000000000000000000000000000000000000000000000000081526004018080602001828103825260168152602001807f6e6f7420656e6f7567682043544e20696e20706f6f6c0000000000000000000081525060200191505060405180910390fd5b82600660003373ffffffffffffffffffffffffffffffffffffffff1673ffffffffffffffffffffffffffffffffffffffff168152602001908152602001600020541161079e576040517f08c379a00000000000000000000000000000000000000000000000000000000081526004018080602001828103825260188152602001807f6e6f7420656e6f75676820455448206465706f7369746564000000000000000081525060200191505060405180910390fd5b81600760003373ffffffffffffffffffffffffffffffffffffffff1673ffffffffffffffffffffffffffffffffffffffff1681526020019081526020016000205411610852576040517f08c379a00000000000000000000000000000000000000000000000000000000081526004018080602001828103825260188152602001807f6e6f7420656e6f7567682043544e206465706f7369746564000000000000000081525060200191505060405180910390fd5b8060055410156108ca576040517f08c379a000000000000000000000000000000000000000000000000000000000815260040180806020018281038252600e8152602001807f696e76616c69642072657761726400000000000000000000000000000000000081525060200191505060405180910390fd5b60006108df828461145990919063ffffffff16565b9050600160009054906101000a900473ffffffffffffffffffffffffffffffffffffffff1673ffffffffffffffffffffffffffffffffffffffff166323b872dd3033846040518463ffffffff1660e01b8152600401808473ffffffffffffffffffffffffffffffffffffffff1673ffffffffffffffffffffffffffffffffffffffff1681526020018373ffffffffffffffffffffffffffffffffffffffff1673ffffffffffffffffffffffffffffffffffffffff1681526020018281526020019350505050602060405180830381600087803b1580156109be57600080fd5b505af11580156109d2573d6000803e3d6000fd5b505050506040513d60208110156109e857600080fd5b8101908080519060200190929190505050503373ffffffffffffffffffffffffffffffffffffffff166108fc859081150290604051600060405180830381858888f19350505050158015610a40573d6000803e3d6000fd5b50610a9384600660003373ffffffffffffffffffffffffffffffffffffffff1673ffffffffffffffffffffffffffffffffffffffff1681526020019081526020016000205461147890919063ffffffff16565b600660003373ffffffffffffffffffffffffffffffffffffffff1673ffffffffffffffffffffffffffffffffffffffff16815260200190815260200160002081905550610b2883600760003373ffffffffffffffffffffffffffffffffffffffff1673ffffffffffffffffffffffffffffffffffffffff1681526020019081526020016000205461147890919063ffffffff16565b600760003373ffffffffffffffffffffffffffffffffffffffff1673ffffffffffffffffffffffffffffffffffffffff1681526020019081526020016000208190555050505050565b6000610c61600554600160009054906101000a900473ffffffffffffffffffffffffffffffffffffffff1673ffffffffffffffffffffffffffffffffffffffff166370a08231306040518263ffffffff1660e01b8152600401808273ffffffffffffffffffffffffffffffffffffffff1673ffffffffffffffffffffffffffffffffffffffff16815260200191505060206040518083038186803b158015610c1857600080fd5b505afa158015610c2c573d6000803e3d6000fd5b505050506040513d6020811015610c4257600080fd5b810190808051906020019092919050505061147890919063ffffffff16565b905090565b81600860003373ffffffffffffffffffffffffffffffffffffffff1673ffffffffffffffffffffffffffffffffffffffff168152602001908152602001600020541015610d1b576040517f08c379a00000000000000000000000000000000000000000000000000000000081526004018080602001828103825260108152602001807f455448206e6f742073656e74207965740000000000000000000000000000000081525060200191505060405180910390fd5b60008111610d91576040517f08c379a00000000000000000000000000000000000000000000000000000000081526004018080602001828103825260168152602001807f43544e20616d6f756e742063616e6e6f7420626520300000000000000000000081525060200191505060405180910390fd5b80600160009054906101000a900473ffffffffffffffffffffffffffffffffffffffff1673ffffffffffffffffffffffffffffffffffffffff166370a08231336040518263ffffffff1660e01b8152600401808273ffffffffffffffffffffffffffffffffffffffff1673ffffffffffffffffffffffffffffffffffffffff16815260200191505060206040518083038186803b158015610e3157600080fd5b505afa158015610e45573d6000803e3d6000fd5b505050506040513d6020811015610e5b57600080fd5b810190808051906020019092919050505011610edf576040517f08c379a00000000000000000000000000000000000000000000000000000000081526004018080602001828103825260148152602001807f6e6f7420656e6f7567682043544e2066756e647300000000000000000000000081525060200191505060405180910390fd5b610f3182600860003373ffffffffffffffffffffffffffffffffffffffff1673ffffffffffffffffffffffffffffffffffffffff1681526020019081526020016000205461147890919063ffffffff16565b600860003373ffffffffffffffffffffffffffffffffffffffff1673ffffffffffffffffffffffffffffffffffffffff16815260200190815260200160002081905550600160009054906101000a900473ffffffffffffffffffffffffffffffffffffffff1673ffffffffffffffffffffffffffffffffffffffff166323b872dd3330846040518463ffffffff1660e01b8152600401808473ffffffffffffffffffffffffffffffffffffffff1673ffffffffffffffffffffffffffffffffffffffff1681526020018373ffffffffffffffffffffffffffffffffffffffff1673ffffffffffffffffffffffffffffffffffffffff1681526020018281526020019350505050602060405180830381600087803b15801561105157600080fd5b505af1158015611065573d6000803e3d6000fd5b505050506040513d602081101561107b57600080fd5b8101908080519060200190929190505050506110df82600660003373ffffffffffffffffffffffffffffffffffffffff1673ffffffffffffffffffffffffffffffffffffffff1681526020019081526020016000205461145990919063ffffffff16565b600660003373ffffffffffffffffffffffffffffffffffffffff1673ffffffffffffffffffffffffffffffffffffffff1681526020019081526020016000208190555061117481600760003373ffffffffffffffffffffffffffffffffffffffff1673ffffffffffffffffffffffffffffffffffffffff1681526020019081526020016000205461145990919063ffffffff16565b600760003373ffffffffffffffffffffffffffffffffffffffff1673ffffffffffffffffffffffffffffffffffffffff168152602001908152602001600020819055505050565b600260009054906101000a900473ffffffffffffffffffffffffffffffffffffffff1673ffffffffffffffffffffffffffffffffffffffff163373ffffffffffffffffffffffffffffffffffffffff1614611261576040517f08c379a00000000000000000000000000000000000000000000000000000000081526004018080602001828103825260278152602001806114b16027913960400191505060405180910390fd5b61126a81611492565b600160009054906101000a900473ffffffffffffffffffffffffffffffffffffffff1673ffffffffffffffffffffffffffffffffffffffff1663a9059cbb84846040518363ffffffff1660e01b8152600401808373ffffffffffffffffffffffffffffffffffffffff1673ffffffffffffffffffffffffffffffffffffffff16815260200182815260200192505050602060405180830381600087803b15801561131357600080fd5b505af1158015611327573d6000803e3d6000fd5b505050506040513d602081101561133d57600080fd5b810190808051906020019092919050505050505050565b600260009054906101000a900473ffffffffffffffffffffffffffffffffffffffff1673ffffffffffffffffffffffffffffffffffffffff163373ffffffffffffffffffffffffffffffffffffffff16146113fa576040517f08c379a00000000000000000000000000000000000000000000000000000000081526004018080602001828103825260278152602001806114b16027913960400191505060405180910390fd5b61140381611492565b8273ffffffffffffffffffffffffffffffffffffffff166108fc839081150290604051600060405180830381858888f19350505050158015611449573d6000803e3d6000fd5b50505050565b6000600554905090565b60008082840190508381101561146e57600080fd5b8091505092915050565b60008282111561148757600080fd5b818303905092915050565b6114a78160055461145990919063ffffffff16565b6005819055505056fe5468652063616c6c6572206d75737420626520616e2065786368616e676520636f6e7472616374a265627a7a72315820acf2fa0e6ecba849245aaf9574d995b7282f121299307d88ef37d0ef05988ee464736f6c63430005100032",
  "source": "pragma solidity ^0.5.0;\n\nimport \"./SafeMath.sol\";\nimport \"./CherryToken.sol\";\nimport \"./CherrySwap.sol\";\n\ncontract CherryLiquidity {\n  using SafeMath for uint256;\n\n  address private _owner;\n  CherryToken private _cherryToken;\n  CherrySwap private _cherrySwap;\n  uint256 private _ethBalance;\n  uint256 private _ctnBalance;\n  uint256 private _collectedFees = 0;\n  mapping(address => uint256) private _balancesInEth;\n  mapping(address => uint256) private _balancesInCtn;\n  mapping(address => uint256) private _unresolvedEth;\n\n  constructor(CherryToken cherryToken, CherrySwap cherrySwap, uint256 initialEthSupply, uint256 initialCtnSupply) public {\n    _cherryToken = cherryToken;\n    _cherrySwap = cherrySwap;\n    _ethBalance = initialEthSupply;\n    _ctnBalance = initialCtnSupply;\n    _cherryToken.transferFrom(msg.sender, address(this), initialCtnSupply);\n    _owner = msg.sender;\n  }\n\n  function() external payable { }\n\n  function getEthBalance() public view returns (uint256 balance) {\n    return address(this).balance;\n  }\n\n  function getCtnBalance() public view returns (uint256 balance) {\n    return _cherryToken.balanceOf(address(this)).sub(_collectedFees);\n  }\n\n  function getCollectedFees() public view returns (uint256 fees) {\n    return _collectedFees;\n  }\n\n  function addEthLiquidity() public payable {\n    require(msg.value > 0, \"ETH amount cannot be 0\");\n    _unresolvedEth[msg.sender] = _unresolvedEth[msg.sender].add(msg.value);\n  }\n\n  function addLiquidity(uint256 ethAmount, uint256 ctnAmount) public {\n    require(_unresolvedEth[msg.sender] >= ethAmount, \"ETH not sent yet\");\n    require(ctnAmount > 0, \"CTN amount cannot be 0\");\n    require(_cherryToken.balanceOf(msg.sender) > ctnAmount, \"not enough CTN funds\");\n    _unresolvedEth[msg.sender] = _unresolvedEth[msg.sender].sub(ethAmount);\n    _cherryToken.transferFrom(msg.sender, address(this), ctnAmount);\n    _balancesInEth[msg.sender] = _balancesInEth[msg.sender].add(ethAmount);\n    _balancesInCtn[msg.sender] = _balancesInCtn[msg.sender].add(ctnAmount);\n  }\n\n  function removeLiquidity(uint256 ethAmount, uint256 ctnAmount, uint256 reward) public {\n    require(ethAmount > 0, \"eth amount cannot be 0\");\n    require(ctnAmount > 0, \"ctn amount cannot be 0\");\n    require(getEthBalance() >= ethAmount, \"not enough ETH in pool\");\n    require(getCtnBalance() >= ctnAmount, \"not enough CTN in pool\");\n    require(_balancesInEth[msg.sender] > ethAmount, \"not enough ETH deposited\");\n    require(_balancesInCtn[msg.sender] > ctnAmount, \"not enough CTN deposited\");\n    require(_collectedFees >= reward, \"invalid reward\");\n    uint256 ctnPayout = ctnAmount.add(reward);\n    _cherryToken.transferFrom(address(this), msg.sender, ctnPayout);\n    msg.sender.transfer(ethAmount);\n    _balancesInEth[msg.sender] = _balancesInEth[msg.sender].sub(ethAmount);\n    _balancesInCtn[msg.sender] = _balancesInCtn[msg.sender].sub(ctnAmount);\n  }\n\n  function getPooledEthFunds(address owner) public view returns (uint256 funds) {\n    return _balancesInEth[owner];\n  }\n\n  function getPooledCtnFunds(address owner) public view returns (uint256 funds) {\n    return _balancesInCtn[owner];\n  }\n\n  function processEthToCtn(address recipient, uint256 ctnAmount, uint256 fees) public onlyExchange  {\n    _addFees(fees);\n    _cherryToken.transfer(recipient, ctnAmount);\n  }\n\n  function processCtnToEth(address payable recipient, uint256 ethAmount, uint256 fees) public onlyExchange {\n    _addFees(fees);\n    recipient.transfer(ethAmount);\n  }\n\n  function _addFees(uint256 amount) private {\n    _collectedFees = _collectedFees.add(amount);\n  }\n\n  modifier onlyExchange {\n    require(msg.sender == address(_cherrySwap), \"The caller must be an exchange contract\");\n    _;\n  }\n}",
  "sourcePath": "/Users/johannes/Documents/Projects/web-projects/cherrypool/contracts/CherryLiquidity.sol",
  "compiler": {
    "name": "solc",
    "version": "0.5.16+commit.9c3226ce.Emscripten.clang"
  },
  "schemaVersion": "3.2.3",
  "updatedAt": "2021-01-18T21:33:21.567Z",
  "devdoc": {
    "methods": {}
  },
  "userdoc": {
    "methods": {}
  }
}