{
  "contractName": "CherryPool",
  "abi": [
    {
      "inputs": [
        {
          "internalType": "contract CherryToken",
          "name": "cherryToken",
          "type": "address"
        }
      ],
      "payable": false,
      "stateMutability": "nonpayable",
      "type": "constructor"
    },
    {
      "payable": true,
      "stateMutability": "payable",
      "type": "fallback"
    },
    {
      "constant": true,
      "inputs": [],
      "name": "getEthBalance",
      "outputs": [
        {
          "internalType": "uint256",
          "name": "balance",
          "type": "uint256"
        }
      ],
      "payable": false,
      "stateMutability": "view",
      "type": "function"
    },
    {
      "constant": true,
      "inputs": [],
      "name": "getCtnBalance",
      "outputs": [
        {
          "internalType": "uint256",
          "name": "balance",
          "type": "uint256"
        }
      ],
      "payable": false,
      "stateMutability": "view",
      "type": "function"
    },
    {
      "constant": true,
      "inputs": [],
      "name": "getCollectedFees",
      "outputs": [
        {
          "internalType": "uint256",
          "name": "fees",
          "type": "uint256"
        }
      ],
      "payable": false,
      "stateMutability": "view",
      "type": "function"
    },
    {
      "constant": true,
      "inputs": [
        {
          "internalType": "address",
          "name": "owner",
          "type": "address"
        }
      ],
      "name": "getPooledEthFunds",
      "outputs": [
        {
          "internalType": "uint256",
          "name": "funds",
          "type": "uint256"
        }
      ],
      "payable": false,
      "stateMutability": "view",
      "type": "function"
    },
    {
      "constant": true,
      "inputs": [
        {
          "internalType": "address",
          "name": "owner",
          "type": "address"
        }
      ],
      "name": "getPooledCtnFunds",
      "outputs": [
        {
          "internalType": "uint256",
          "name": "funds",
          "type": "uint256"
        }
      ],
      "payable": false,
      "stateMutability": "view",
      "type": "function"
    },
    {
      "constant": false,
      "inputs": [
        {
          "internalType": "uint256",
          "name": "ctnAmount",
          "type": "uint256"
        }
      ],
      "name": "addLiquidity",
      "outputs": [],
      "payable": true,
      "stateMutability": "payable",
      "type": "function"
    },
    {
      "constant": false,
      "inputs": [
        {
          "internalType": "uint256",
          "name": "ethAmount",
          "type": "uint256"
        },
        {
          "internalType": "uint256",
          "name": "ctnAmount",
          "type": "uint256"
        },
        {
          "internalType": "uint256",
          "name": "reward",
          "type": "uint256"
        }
      ],
      "name": "removeLiquidity",
      "outputs": [],
      "payable": false,
      "stateMutability": "nonpayable",
      "type": "function"
    },
    {
      "constant": false,
      "inputs": [],
      "name": "swapEthToCtn",
      "outputs": [],
      "payable": true,
      "stateMutability": "payable",
      "type": "function"
    },
    {
      "constant": false,
      "inputs": [
        {
          "internalType": "uint256",
          "name": "amount",
          "type": "uint256"
        }
      ],
      "name": "swapCtnToEth",
      "outputs": [],
      "payable": false,
      "stateMutability": "nonpayable",
      "type": "function"
    }
  ],
  "bytecode": "0x6080604052600060025534801561001557600080fd5b506040516116173803806116178339818101604052602081101561003857600080fd5b810190808051906020019092919050505080600160006101000a81548173ffffffffffffffffffffffffffffffffffffffff021916908373ffffffffffffffffffffffffffffffffffffffff160217905550336000806101000a81548173ffffffffffffffffffffffffffffffffffffffff021916908373ffffffffffffffffffffffffffffffffffffffff1602179055505061153d806100da6000396000f3fe6080604052600436106100865760003560e01c806370ed0ada1161005957806370ed0ada146101bb578063857620e1146101e657806396714ef414610235578063d54a8d1814610260578063f4fba8691461028b57610086565b80630aa83786146100885780630fac4b26146100ed5780634e9132581461015257806351c6590a1461018d575b005b34801561009457600080fd5b506100d7600480360360208110156100ab57600080fd5b81019080803573ffffffffffffffffffffffffffffffffffffffff169060200190929190505050610295565b6040518082815260200191505060405180910390f35b3480156100f957600080fd5b5061013c6004803603602081101561011057600080fd5b81019080803573ffffffffffffffffffffffffffffffffffffffff1690602001909291905050506102de565b6040518082815260200191505060405180910390f35b34801561015e57600080fd5b5061018b6004803603602081101561017557600080fd5b8101908080359060200190929190505050610327565b005b6101b9600480360360208110156101a357600080fd5b81019080803590602001909291905050506105de565b005b3480156101c757600080fd5b506101d06109e9565b6040518082815260200191505060405180910390f35b3480156101f257600080fd5b506102336004803603606081101561020957600080fd5b81019080803590602001909291908035906020019092919080359060200190929190505050610a08565b005b34801561024157600080fd5b5061024a611041565b6040518082815260200191505060405180910390f35b34801561026c57600080fd5b50610275611136565b6040518082815260200191505060405180910390f35b610293611140565b005b6000600460008373ffffffffffffffffffffffffffffffffffffffff1673ffffffffffffffffffffffffffffffffffffffff168152602001908152602001600020549050919050565b6000600360008373ffffffffffffffffffffffffffffffffffffffff1673ffffffffffffffffffffffffffffffffffffffff168152602001908152602001600020549050919050565b6000811161039d576040517f08c379a00000000000000000000000000000000000000000000000000000000081526004018080602001828103825260128152602001807f616d6f756e742063616e6e6f742062652030000000000000000000000000000081525060200191505060405180910390fd5b60006103b46103e88361137b90919063ffffffff16565b905060006103df600a6103d160018561140a90919063ffffffff16565b61137b90919063ffffffff16565b90506103ea81611490565b6103fd81836114ae90919063ffffffff16565b6104056109e9565b1015610479576040517f08c379a000000000000000000000000000000000000000000000000000000000815260040180806020018281038252601a8152602001807f6e6f7420656e6f7567682066756e647320617661696c61626c6500000000000081525060200191505060405180910390fd5b600160009054906101000a900473ffffffffffffffffffffffffffffffffffffffff1673ffffffffffffffffffffffffffffffffffffffff166323b872dd3330866040518463ffffffff1660e01b8152600401808473ffffffffffffffffffffffffffffffffffffffff1673ffffffffffffffffffffffffffffffffffffffff1681526020018373ffffffffffffffffffffffffffffffffffffffff1673ffffffffffffffffffffffffffffffffffffffff1681526020018281526020019350505050602060405180830381600087803b15801561055657600080fd5b505af115801561056a573d6000803e3d6000fd5b505050506040513d602081101561058057600080fd5b8101908080519060200190929190505050503373ffffffffffffffffffffffffffffffffffffffff166108fc839081150290604051600060405180830381858888f193505050501580156105d8573d6000803e3d6000fd5b50505050565b60003411610654576040517f08c379a00000000000000000000000000000000000000000000000000000000081526004018080602001828103825260168152602001807f45544820616d6f756e742063616e6e6f7420626520300000000000000000000081525060200191505060405180910390fd5b80600160009054906101000a900473ffffffffffffffffffffffffffffffffffffffff1673ffffffffffffffffffffffffffffffffffffffff166370a08231336040518263ffffffff1660e01b8152600401808273ffffffffffffffffffffffffffffffffffffffff1673ffffffffffffffffffffffffffffffffffffffff16815260200191505060206040518083038186803b1580156106f457600080fd5b505afa158015610708573d6000803e3d6000fd5b505050506040513d602081101561071e57600080fd5b810190808051906020019092919050505010156107a3576040517f08c379a00000000000000000000000000000000000000000000000000000000081526004018080602001828103825260148152602001807f6e6f7420656e6f7567682043544e2066756e647300000000000000000000000081525060200191505060405180910390fd5b600160009054906101000a900473ffffffffffffffffffffffffffffffffffffffff1673ffffffffffffffffffffffffffffffffffffffff166323b872dd3330846040518463ffffffff1660e01b8152600401808473ffffffffffffffffffffffffffffffffffffffff1673ffffffffffffffffffffffffffffffffffffffff1681526020018373ffffffffffffffffffffffffffffffffffffffff1673ffffffffffffffffffffffffffffffffffffffff1681526020018281526020019350505050602060405180830381600087803b15801561088057600080fd5b505af1158015610894573d6000803e3d6000fd5b505050506040513d60208110156108aa57600080fd5b81019080805190602001909291905050505061090e34600360003373ffffffffffffffffffffffffffffffffffffffff1673ffffffffffffffffffffffffffffffffffffffff168152602001908152602001600020546114c890919063ffffffff16565b600360003373ffffffffffffffffffffffffffffffffffffffff1673ffffffffffffffffffffffffffffffffffffffff168152602001908152602001600020819055506109a381600460003373ffffffffffffffffffffffffffffffffffffffff1673ffffffffffffffffffffffffffffffffffffffff168152602001908152602001600020546114c890919063ffffffff16565b600460003373ffffffffffffffffffffffffffffffffffffffff1673ffffffffffffffffffffffffffffffffffffffff1681526020019081526020016000208190555050565b60003073ffffffffffffffffffffffffffffffffffffffff1631905090565b60008311610a7e576040517f08c379a00000000000000000000000000000000000000000000000000000000081526004018080602001828103825260168152602001807f65746820616d6f756e742063616e6e6f7420626520300000000000000000000081525060200191505060405180910390fd5b60008211610af4576040517f08c379a00000000000000000000000000000000000000000000000000000000081526004018080602001828103825260168152602001807f63746e20616d6f756e742063616e6e6f7420626520300000000000000000000081525060200191505060405180910390fd5b82610afd6109e9565b1015610b71576040517f08c379a00000000000000000000000000000000000000000000000000000000081526004018080602001828103825260168152602001807f6e6f7420656e6f7567682045544820696e20706f6f6c0000000000000000000081525060200191505060405180910390fd5b81610b7a611041565b1015610bee576040517f08c379a00000000000000000000000000000000000000000000000000000000081526004018080602001828103825260168152602001807f6e6f7420656e6f7567682043544e20696e20706f6f6c0000000000000000000081525060200191505060405180910390fd5b82600360003373ffffffffffffffffffffffffffffffffffffffff1673ffffffffffffffffffffffffffffffffffffffff1681526020019081526020016000205411610ca2576040517f08c379a00000000000000000000000000000000000000000000000000000000081526004018080602001828103825260188152602001807f6e6f7420656e6f75676820455448206465706f7369746564000000000000000081525060200191505060405180910390fd5b81600460003373ffffffffffffffffffffffffffffffffffffffff1673ffffffffffffffffffffffffffffffffffffffff1681526020019081526020016000205411610d56576040517f08c379a00000000000000000000000000000000000000000000000000000000081526004018080602001828103825260188152602001807f6e6f7420656e6f7567682043544e206465706f7369746564000000000000000081525060200191505060405180910390fd5b806002541015610dce576040517f08c379a000000000000000000000000000000000000000000000000000000000815260040180806020018281038252600e8152602001807f696e76616c69642072657761726400000000000000000000000000000000000081525060200191505060405180910390fd5b6000610de382846114c890919063ffffffff16565b9050600160009054906101000a900473ffffffffffffffffffffffffffffffffffffffff1673ffffffffffffffffffffffffffffffffffffffff1663a9059cbb33836040518363ffffffff1660e01b8152600401808373ffffffffffffffffffffffffffffffffffffffff1673ffffffffffffffffffffffffffffffffffffffff16815260200182815260200192505050602060405180830381600087803b158015610e8e57600080fd5b505af1158015610ea2573d6000803e3d6000fd5b505050506040513d6020811015610eb857600080fd5b8101908080519060200190929190505050503373ffffffffffffffffffffffffffffffffffffffff166108fc859081150290604051600060405180830381858888f19350505050158015610f10573d6000803e3d6000fd5b50610f6384600360003373ffffffffffffffffffffffffffffffffffffffff1673ffffffffffffffffffffffffffffffffffffffff168152602001908152602001600020546114ae90919063ffffffff16565b600360003373ffffffffffffffffffffffffffffffffffffffff1673ffffffffffffffffffffffffffffffffffffffff16815260200190815260200160002081905550610ff883600460003373ffffffffffffffffffffffffffffffffffffffff1673ffffffffffffffffffffffffffffffffffffffff168152602001908152602001600020546114ae90919063ffffffff16565b600460003373ffffffffffffffffffffffffffffffffffffffff1673ffffffffffffffffffffffffffffffffffffffff1681526020019081526020016000208190555050505050565b6000611131600254600160009054906101000a900473ffffffffffffffffffffffffffffffffffffffff1673ffffffffffffffffffffffffffffffffffffffff166370a08231306040518263ffffffff1660e01b8152600401808273ffffffffffffffffffffffffffffffffffffffff1673ffffffffffffffffffffffffffffffffffffffff16815260200191505060206040518083038186803b1580156110e857600080fd5b505afa1580156110fc573d6000803e3d6000fd5b505050506040513d602081101561111257600080fd5b81019080805190602001909291905050506114ae90919063ffffffff16565b905090565b6000600254905090565b600034116111b6576040517f08c379a00000000000000000000000000000000000000000000000000000000081526004018080602001828103825260128152602001807f616d6f756e742063616e6e6f742062652030000000000000000000000000000081525060200191505060405180910390fd5b60006111df60016111d160643461140a90919063ffffffff16565b61137b90919063ffffffff16565b9050600061120a826111fc6103e83461140a90919063ffffffff16565b6114ae90919063ffffffff16565b905061121582611490565b8061121e611041565b1015611292576040517f08c379a000000000000000000000000000000000000000000000000000000000815260040180806020018281038252601a8152602001807f6e6f7420656e6f7567682066756e647320617661696c61626c6500000000000081525060200191505060405180910390fd5b600160009054906101000a900473ffffffffffffffffffffffffffffffffffffffff1673ffffffffffffffffffffffffffffffffffffffff1663a9059cbb33836040518363ffffffff1660e01b8152600401808373ffffffffffffffffffffffffffffffffffffffff1673ffffffffffffffffffffffffffffffffffffffff16815260200182815260200192505050602060405180830381600087803b15801561133b57600080fd5b505af115801561134f573d6000803e3d6000fd5b505050506040513d602081101561136557600080fd5b8101908080519060200190929190505050505050565b60008082116113f2576040517f08c379a000000000000000000000000000000000000000000000000000000000815260040180806020018281038252601a8152602001807f536166654d6174683a206469766973696f6e206279207a65726f00000000000081525060200191505060405180910390fd5b60008284816113fd57fe5b0490508091505092915050565b60008083141561141d576000905061148a565b600082840290508284828161142e57fe5b0414611485576040517f08c379a00000000000000000000000000000000000000000000000000000000081526004018080602001828103825260218152602001806114e86021913960400191505060405180910390fd5b809150505b92915050565b6114a5816002546114c890919063ffffffff16565b60028190555050565b6000828211156114bd57600080fd5b818303905092915050565b6000808284019050838110156114dd57600080fd5b809150509291505056fe536166654d6174683a206d756c7469706c69636174696f6e206f766572666c6f77a265627a7a723158202c01cbf3e96010f02304f3ff2f82cf242d274e12ca0363d40eaa046429cf52a664736f6c63430005100032",
  "source": "pragma solidity ^0.5.16;\n\nimport \"./SafeMath.sol\";\nimport \"./CherryToken.sol\";\n\ncontract CherryPool {\n  using SafeMath for uint256;\n\n  address private _owner;\n  CherryToken private _cherryToken;\n\n  uint256 private _collectedFees = 0;\n\n  mapping(address => uint256) private _balancesInEth;\n  mapping(address => uint256) private _balancesInCtn;\n  mapping(address => uint256) private _unresolvedEth;\n\n  constructor(CherryToken cherryToken) public {\n    _cherryToken = cherryToken;\n    _owner = msg.sender;\n  }\n\n  function () external payable {}\n\n  function getEthBalance() public view returns (uint256 balance) {\n    return address(this).balance;\n  }\n\n  function getCtnBalance() public view returns (uint256 balance) {\n    return _cherryToken.balanceOf(address(this)).sub(_collectedFees);\n  }\n\n  function getCollectedFees() public view returns (uint256 fees) {\n    return _collectedFees;\n  }\n\n  function getPooledEthFunds(address owner) public view returns (uint256 funds) {\n    return _balancesInEth[owner];\n  }\n\n  function getPooledCtnFunds(address owner) public view returns (uint256 funds) {\n    return _balancesInCtn[owner];\n  }\n\n  function addLiquidity(uint256 ctnAmount) public payable {\n    require(msg.value > 0, \"ETH amount cannot be 0\");\n    require(_cherryToken.balanceOf(msg.sender) >= ctnAmount, \"not enough CTN funds\");\n    _cherryToken.transferFrom(msg.sender, address(this), ctnAmount);\n    _balancesInEth[msg.sender] = _balancesInEth[msg.sender].add(msg.value);\n    _balancesInCtn[msg.sender] = _balancesInCtn[msg.sender].add(ctnAmount);\n  }\n\n  function removeLiquidity(uint256 ethAmount, uint256 ctnAmount, uint256 reward) public {\n    require(ethAmount > 0, \"eth amount cannot be 0\");\n    require(ctnAmount > 0, \"ctn amount cannot be 0\");\n    require(getEthBalance() >= ethAmount, \"not enough ETH in pool\");\n    require(getCtnBalance() >= ctnAmount, \"not enough CTN in pool\");\n    require(_balancesInEth[msg.sender] > ethAmount, \"not enough ETH deposited\");\n    require(_balancesInCtn[msg.sender] > ctnAmount, \"not enough CTN deposited\");\n    require(_collectedFees >= reward, \"invalid reward\");\n    uint256 ctnPayout = ctnAmount.add(reward);\n    _cherryToken.transfer(msg.sender, ctnPayout);\n    msg.sender.transfer(ethAmount);\n    _balancesInEth[msg.sender] = _balancesInEth[msg.sender].sub(ethAmount);\n    _balancesInCtn[msg.sender] = _balancesInCtn[msg.sender].sub(ctnAmount);\n  }\n\n  // -------------------------\n\n  function swapEthToCtn() public payable {\n    require(msg.value > 0, \"amount cannot be 0\");\n    uint256 fees = msg.value.mul(100).div(1); // 10%\n    uint256 ctnAmount = msg.value.mul(1000).sub(fees); // TODO: refactor\n    _addFees(fees);\n    require(getCtnBalance() >= ctnAmount, \"not enough funds available\");\n    _cherryToken.transfer(msg.sender, ctnAmount);\n  }\n\n  function swapCtnToEth(uint256 amount) public {\n    require(amount > 0, \"amount cannot be 0\");\n    uint256 ethAmount = amount.div(1000); // TODO: refactor\n    uint256 fees = ethAmount.mul(1).div(10); // 10%\n    _addFees(fees);\n    require(getEthBalance() >= ethAmount.sub(fees), \"not enough funds available\");\n    _cherryToken.transferFrom(msg.sender, address(this), amount);\n    msg.sender.transfer(ethAmount);\n  }\n\n  function _addFees(uint256 amount) private {\n    _collectedFees = _collectedFees.add(amount);\n  }\n}",
  "sourcePath": "/Users/johannes/Documents/Projects/github/cherrypool/contracts/CherryPool.sol",
  "compiler": {
    "name": "solc",
    "version": "0.5.16+commit.9c3226ce.Emscripten.clang"
  },
  "schemaVersion": "3.2.3",
  "updatedAt": "2021-01-21T23:03:46.441Z",
  "networkType": "ethereum",
  "devdoc": {
    "methods": {}
  },
  "userdoc": {
    "methods": {}
  }
}