{
  "contractName": "CherrySwap",
  "abi": [
    {
      "inputs": [
        {
          "internalType": "contract CherryToken",
          "name": "cherryToken",
          "type": "address"
        },
        {
          "internalType": "contract CherryLiquidity",
          "name": "cherryLiquidity",
          "type": "address"
        }
      ],
      "payable": false,
      "stateMutability": "nonpayable",
      "type": "constructor"
    },
    {
      "payable": true,
      "stateMutability": "payable",
      "type": "fallback"
    },
    {
      "constant": false,
      "inputs": [],
      "name": "ethToCtn",
      "outputs": [],
      "payable": true,
      "stateMutability": "payable",
      "type": "function"
    },
    {
      "constant": false,
      "inputs": [
        {
          "internalType": "uint256",
          "name": "amount",
          "type": "uint256"
        }
      ],
      "name": "ctnToEth",
      "outputs": [],
      "payable": false,
      "stateMutability": "nonpayable",
      "type": "function"
    }
  ],
  "bytecode": "0x608060405234801561001057600080fd5b50604051610a27380380610a278339818101604052604081101561003357600080fd5b81019080805190602001909291908051906020019092919050505081600160006101000a81548173ffffffffffffffffffffffffffffffffffffffff021916908373ffffffffffffffffffffffffffffffffffffffff16021790555080600260006101000a81548173ffffffffffffffffffffffffffffffffffffffff021916908373ffffffffffffffffffffffffffffffffffffffff160217905550336000806101000a81548173ffffffffffffffffffffffffffffffffffffffff021916908373ffffffffffffffffffffffffffffffffffffffff1602179055505050610906806101216000396000f3fe6080604052600436106100295760003560e01c8063280f22f6146100335780639faf7e9d1461003d575b610031610078565b005b61003b610078565b005b34801561004957600080fd5b506100766004803603602081101561006057600080fd5b8101908080359060200190929190505050610393565b005b600034116100ee576040517f08c379a00000000000000000000000000000000000000000000000000000000081526004018080602001828103825260128152602001807f616d6f756e742063616e6e6f742062652030000000000000000000000000000081525060200191505060405180910390fd5b600061011861271061010a60023461078190919063ffffffff16565b61080790919063ffffffff16565b90506000610143826101356103e83461078190919063ffffffff16565b61089690919063ffffffff16565b905080600260009054906101000a900473ffffffffffffffffffffffffffffffffffffffff1673ffffffffffffffffffffffffffffffffffffffff166396714ef46040518163ffffffff1660e01b815260040160206040518083038186803b1580156101ae57600080fd5b505afa1580156101c2573d6000803e3d6000fd5b505050506040513d60208110156101d857600080fd5b8101908080519060200190929190505050101561025d576040517f08c379a000000000000000000000000000000000000000000000000000000000815260040180806020018281038252601a8152602001807f6e6f7420656e6f7567682066756e647320617661696c61626c6500000000000081525060200191505060405180910390fd5b600260009054906101000a900473ffffffffffffffffffffffffffffffffffffffff1673ffffffffffffffffffffffffffffffffffffffff166108fc349081150290604051600060405180830381858888f193505050501580156102c5573d6000803e3d6000fd5b50600260009054906101000a900473ffffffffffffffffffffffffffffffffffffffff1673ffffffffffffffffffffffffffffffffffffffff16639eb5c34d3383856040518463ffffffff1660e01b8152600401808473ffffffffffffffffffffffffffffffffffffffff1673ffffffffffffffffffffffffffffffffffffffff1681526020018381526020018281526020019350505050600060405180830381600087803b15801561037757600080fd5b505af115801561038b573d6000803e3d6000fd5b505050505050565b60008111610409576040517f08c379a00000000000000000000000000000000000000000000000000000000081526004018080602001828103825260128152602001807f616d6f756e742063616e6e6f742062652030000000000000000000000000000081525060200191505060405180910390fd5b600061043361271061042560028561078190919063ffffffff16565b61080790919063ffffffff16565b9050600061045e6103e8610450848661089690919063ffffffff16565b61080790919063ffffffff16565b905080600260009054906101000a900473ffffffffffffffffffffffffffffffffffffffff1673ffffffffffffffffffffffffffffffffffffffff166370ed0ada6040518163ffffffff1660e01b815260040160206040518083038186803b1580156104c957600080fd5b505afa1580156104dd573d6000803e3d6000fd5b505050506040513d60208110156104f357600080fd5b81019080805190602001909291905050501015610578576040517f08c379a000000000000000000000000000000000000000000000000000000000815260040180806020018281038252601a8152602001807f6e6f7420656e6f7567682066756e647320617661696c61626c6500000000000081525060200191505060405180910390fd5b600160009054906101000a900473ffffffffffffffffffffffffffffffffffffffff1673ffffffffffffffffffffffffffffffffffffffff166323b872dd33600260009054906101000a900473ffffffffffffffffffffffffffffffffffffffff16866040518463ffffffff1660e01b8152600401808473ffffffffffffffffffffffffffffffffffffffff1673ffffffffffffffffffffffffffffffffffffffff1681526020018373ffffffffffffffffffffffffffffffffffffffff1673ffffffffffffffffffffffffffffffffffffffff1681526020018281526020019350505050602060405180830381600087803b15801561067757600080fd5b505af115801561068b573d6000803e3d6000fd5b505050506040513d60208110156106a157600080fd5b810190808051906020019092919050505050600260009054906101000a900473ffffffffffffffffffffffffffffffffffffffff1673ffffffffffffffffffffffffffffffffffffffff1663d17d2d713383856040518463ffffffff1660e01b8152600401808473ffffffffffffffffffffffffffffffffffffffff1673ffffffffffffffffffffffffffffffffffffffff1681526020018381526020018281526020019350505050600060405180830381600087803b15801561076457600080fd5b505af1158015610778573d6000803e3d6000fd5b50505050505050565b6000808314156107945760009050610801565b60008284029050828482816107a557fe5b04146107fc576040517f08c379a00000000000000000000000000000000000000000000000000000000081526004018080602001828103825260218152602001806108b16021913960400191505060405180910390fd5b809150505b92915050565b600080821161087e576040517f08c379a000000000000000000000000000000000000000000000000000000000815260040180806020018281038252601a8152602001807f536166654d6174683a206469766973696f6e206279207a65726f00000000000081525060200191505060405180910390fd5b600082848161088957fe5b0490508091505092915050565b6000828211156108a557600080fd5b81830390509291505056fe536166654d6174683a206d756c7469706c69636174696f6e206f766572666c6f77a265627a7a723158207e43ed905c601422164a623ca662d36c1a49095c318c3b215f3bf1f40406be1f64736f6c63430005100032",
  "source": "pragma solidity ^0.5.16;\n\nimport \"./SafeMath.sol\";\nimport \"./CherryToken.sol\";\nimport \"./CherryLiquidity.sol\";\n\ncontract CherrySwap {\n  using SafeMath for uint256;\n\n  address private _owner;\n  CherryToken private _cherryToken;\n  CherryLiquidity private _cherryLiquidity;\n\n  constructor(CherryToken cherryToken, CherryLiquidity cherryLiquidity) public {\n    _cherryToken = cherryToken;\n    _cherryLiquidity = cherryLiquidity;\n    _owner = msg.sender;\n  }\n\n  function () external payable {\n    ethToCtn();\n  }\n\n  function ethToCtn() public payable {\n    require(msg.value > 0, \"amount cannot be 0\");\n    uint256 fees = msg.value.mul(2).div(10000); // 2%\n    uint256 ctnAmount = msg.value.mul(1000).sub(fees); // TODO: refactor\n    require(_cherryLiquidity.getCtnBalance() >= ctnAmount, \"not enough funds available\");\n    address(_cherryLiquidity).transfer(msg.value);\n    _cherryLiquidity.processEthToCtn(msg.sender, ctnAmount, fees);\n  }\n\n  function ctnToEth(uint256 amount) public {\n    require(amount > 0, \"amount cannot be 0\");\n    uint256 fees = amount.mul(2).div(10000); // 2%\n    uint256 ethAmount = amount.sub(fees).div(1000); // TODO: refactor\n    require(_cherryLiquidity.getEthBalance() >= ethAmount, \"not enough funds available\");\n    _cherryToken.transferFrom(msg.sender, address(_cherryLiquidity), amount);\n    _cherryLiquidity.processCtnToEth(msg.sender, ethAmount, fees);\n  }\n}",
  "sourcePath": "/Users/johannes/Documents/Projects/web-projects/cherrypool/contracts/CherrySwap.sol",
  "compiler": {
    "name": "solc",
    "version": "0.5.16+commit.9c3226ce.Emscripten.clang"
  },
  "schemaVersion": "3.2.3",
  "updatedAt": "2021-01-18T21:34:18.574Z",
  "devdoc": {
    "methods": {}
  },
  "userdoc": {
    "methods": {}
  }
}