{
  "contractName": "CherryPool",
  "abi": [
    {
      "inputs": [
        {
          "internalType": "contract CherryToken",
          "name": "cherryToken",
          "type": "address"
        }
      ],
      "payable": false,
      "stateMutability": "nonpayable",
      "type": "constructor"
    },
    {
      "payable": true,
      "stateMutability": "payable",
      "type": "fallback"
    },
    {
      "constant": true,
      "inputs": [],
      "name": "getEthBalance",
      "outputs": [
        {
          "internalType": "uint256",
          "name": "balance",
          "type": "uint256"
        }
      ],
      "payable": false,
      "stateMutability": "view",
      "type": "function"
    },
    {
      "constant": true,
      "inputs": [],
      "name": "getCtnBalance",
      "outputs": [
        {
          "internalType": "uint256",
          "name": "balance",
          "type": "uint256"
        }
      ],
      "payable": false,
      "stateMutability": "view",
      "type": "function"
    },
    {
      "constant": true,
      "inputs": [],
      "name": "getCollectedFees",
      "outputs": [
        {
          "internalType": "uint256",
          "name": "fees",
          "type": "uint256"
        }
      ],
      "payable": false,
      "stateMutability": "view",
      "type": "function"
    },
    {
      "constant": true,
      "inputs": [
        {
          "internalType": "address",
          "name": "owner",
          "type": "address"
        }
      ],
      "name": "getPooledEthFunds",
      "outputs": [
        {
          "internalType": "uint256",
          "name": "funds",
          "type": "uint256"
        }
      ],
      "payable": false,
      "stateMutability": "view",
      "type": "function"
    },
    {
      "constant": true,
      "inputs": [
        {
          "internalType": "address",
          "name": "owner",
          "type": "address"
        }
      ],
      "name": "getPooledCtnFunds",
      "outputs": [
        {
          "internalType": "uint256",
          "name": "funds",
          "type": "uint256"
        }
      ],
      "payable": false,
      "stateMutability": "view",
      "type": "function"
    },
    {
      "constant": false,
      "inputs": [
        {
          "internalType": "uint256",
          "name": "ctnAmount",
          "type": "uint256"
        }
      ],
      "name": "addLiquidity",
      "outputs": [],
      "payable": true,
      "stateMutability": "payable",
      "type": "function"
    },
    {
      "constant": false,
      "inputs": [
        {
          "internalType": "uint256",
          "name": "ethAmount",
          "type": "uint256"
        },
        {
          "internalType": "uint256",
          "name": "ctnAmount",
          "type": "uint256"
        },
        {
          "internalType": "uint256",
          "name": "reward",
          "type": "uint256"
        }
      ],
      "name": "removeLiquidity",
      "outputs": [],
      "payable": false,
      "stateMutability": "nonpayable",
      "type": "function"
    },
    {
      "constant": false,
      "inputs": [],
      "name": "swapEthToCtn",
      "outputs": [],
      "payable": true,
      "stateMutability": "payable",
      "type": "function"
    },
    {
      "constant": false,
      "inputs": [
        {
          "internalType": "uint256",
          "name": "amount",
          "type": "uint256"
        }
      ],
      "name": "swapCtnToEth",
      "outputs": [],
      "payable": false,
      "stateMutability": "nonpayable",
      "type": "function"
    }
  ],
  "bytecode": "0x6080604052600060025534801561001557600080fd5b506040516116c93803806116c98339818101604052602081101561003857600080fd5b810190808051906020019092919050505080600160006101000a81548173ffffffffffffffffffffffffffffffffffffffff021916908373ffffffffffffffffffffffffffffffffffffffff160217905550336000806101000a81548173ffffffffffffffffffffffffffffffffffffffff021916908373ffffffffffffffffffffffffffffffffffffffff160217905550506115ef806100da6000396000f3fe6080604052600436106100865760003560e01c806370ed0ada1161005957806370ed0ada146101c3578063857620e1146101ee57806396714ef41461023d578063d54a8d1814610268578063f4fba8691461029357610086565b80630aa83786146100905780630fac4b26146100f55780634e9132581461015a57806351c6590a14610195575b61008e61029d565b005b34801561009c57600080fd5b506100df600480360360208110156100b357600080fd5b81019080803573ffffffffffffffffffffffffffffffffffffffff1690602001909291905050506104d9565b6040518082815260200191505060405180910390f35b34801561010157600080fd5b506101446004803603602081101561011857600080fd5b81019080803573ffffffffffffffffffffffffffffffffffffffff169060200190929190505050610522565b6040518082815260200191505060405180910390f35b34801561016657600080fd5b506101936004803603602081101561017d57600080fd5b810190808035906020019092919050505061056b565b005b6101c1600480360360208110156101ab57600080fd5b8101908080359060200190929190505050610823565b005b3480156101cf57600080fd5b506101d8610ca3565b6040518082815260200191505060405180910390f35b3480156101fa57600080fd5b5061023b6004803603606081101561021157600080fd5b81019080803590602001909291908035906020019092919080359060200190929190505050610cc2565b005b34801561024957600080fd5b5061025261132e565b6040518082815260200191505060405180910390f35b34801561027457600080fd5b5061027d611423565b6040518082815260200191505060405180910390f35b61029b61029d565b005b60003411610313576040517f08c379a00000000000000000000000000000000000000000000000000000000081526004018080602001828103825260128152602001807f616d6f756e742063616e6e6f742062652030000000000000000000000000000081525060200191505060405180910390fd5b600061033d61271061032f600a3461142d90919063ffffffff16565b6114b390919063ffffffff16565b905060006103688261035a6103e83461142d90919063ffffffff16565b61154290919063ffffffff16565b90508061037361132e565b10156103e7576040517f08c379a000000000000000000000000000000000000000000000000000000000815260040180806020018281038252601a8152602001807f6e6f7420656e6f7567682066756e647320617661696c61626c6500000000000081525060200191505060405180910390fd5b6103f08261155c565b600160009054906101000a900473ffffffffffffffffffffffffffffffffffffffff1673ffffffffffffffffffffffffffffffffffffffff1663a9059cbb33836040518363ffffffff1660e01b8152600401808373ffffffffffffffffffffffffffffffffffffffff1673ffffffffffffffffffffffffffffffffffffffff16815260200182815260200192505050602060405180830381600087803b15801561049957600080fd5b505af11580156104ad573d6000803e3d6000fd5b505050506040513d60208110156104c357600080fd5b8101908080519060200190929190505050505050565b6000600460008373ffffffffffffffffffffffffffffffffffffffff1673ffffffffffffffffffffffffffffffffffffffff168152602001908152602001600020549050919050565b6000600360008373ffffffffffffffffffffffffffffffffffffffff1673ffffffffffffffffffffffffffffffffffffffff168152602001908152602001600020549050919050565b600081116105e1576040517f08c379a00000000000000000000000000000000000000000000000000000000081526004018080602001828103825260128152602001807f616d6f756e742063616e6e6f742062652030000000000000000000000000000081525060200191505060405180910390fd5b600061060b6127106105fd600a8561142d90919063ffffffff16565b6114b390919063ffffffff16565b905060006106366103e8610628848661154290919063ffffffff16565b6114b390919063ffffffff16565b905080610641610ca3565b10156106b5576040517f08c379a000000000000000000000000000000000000000000000000000000000815260040180806020018281038252601a8152602001807f6e6f7420656e6f7567682066756e647320617661696c61626c6500000000000081525060200191505060405180910390fd5b600160009054906101000a900473ffffffffffffffffffffffffffffffffffffffff1673ffffffffffffffffffffffffffffffffffffffff166323b872dd3330866040518463ffffffff1660e01b8152600401808473ffffffffffffffffffffffffffffffffffffffff1673ffffffffffffffffffffffffffffffffffffffff1681526020018373ffffffffffffffffffffffffffffffffffffffff1673ffffffffffffffffffffffffffffffffffffffff1681526020018281526020019350505050602060405180830381600087803b15801561079257600080fd5b505af11580156107a6573d6000803e3d6000fd5b505050506040513d60208110156107bc57600080fd5b8101908080519060200190929190505050506107d78261155c565b3373ffffffffffffffffffffffffffffffffffffffff166108fc829081150290604051600060405180830381858888f1935050505015801561081d573d6000803e3d6000fd5b50505050565b60003411610899576040517f08c379a00000000000000000000000000000000000000000000000000000000081526004018080602001828103825260168152602001807f45544820616d6f756e742063616e6e6f7420626520300000000000000000000081525060200191505060405180910390fd5b6000811161090f576040517f08c379a00000000000000000000000000000000000000000000000000000000081526004018080602001828103825260168152602001807f43544e20616d6f756e742063616e6e6f7420626520300000000000000000000081525060200191505060405180910390fd5b80600160009054906101000a900473ffffffffffffffffffffffffffffffffffffffff1673ffffffffffffffffffffffffffffffffffffffff166370a08231336040518263ffffffff1660e01b8152600401808273ffffffffffffffffffffffffffffffffffffffff1673ffffffffffffffffffffffffffffffffffffffff16815260200191505060206040518083038186803b1580156109af57600080fd5b505afa1580156109c3573d6000803e3d6000fd5b505050506040513d60208110156109d957600080fd5b810190808051906020019092919050505011610a5d576040517f08c379a00000000000000000000000000000000000000000000000000000000081526004018080602001828103825260148152602001807f6e6f7420656e6f7567682043544e2066756e647300000000000000000000000081525060200191505060405180910390fd5b600160009054906101000a900473ffffffffffffffffffffffffffffffffffffffff1673ffffffffffffffffffffffffffffffffffffffff166323b872dd3330846040518463ffffffff1660e01b8152600401808473ffffffffffffffffffffffffffffffffffffffff1673ffffffffffffffffffffffffffffffffffffffff1681526020018373ffffffffffffffffffffffffffffffffffffffff1673ffffffffffffffffffffffffffffffffffffffff1681526020018281526020019350505050602060405180830381600087803b158015610b3a57600080fd5b505af1158015610b4e573d6000803e3d6000fd5b505050506040513d6020811015610b6457600080fd5b810190808051906020019092919050505050610bc834600360003373ffffffffffffffffffffffffffffffffffffffff1673ffffffffffffffffffffffffffffffffffffffff1681526020019081526020016000205461157a90919063ffffffff16565b600360003373ffffffffffffffffffffffffffffffffffffffff1673ffffffffffffffffffffffffffffffffffffffff16815260200190815260200160002081905550610c5d81600460003373ffffffffffffffffffffffffffffffffffffffff1673ffffffffffffffffffffffffffffffffffffffff1681526020019081526020016000205461157a90919063ffffffff16565b600460003373ffffffffffffffffffffffffffffffffffffffff1673ffffffffffffffffffffffffffffffffffffffff1681526020019081526020016000208190555050565b60003073ffffffffffffffffffffffffffffffffffffffff1631905090565b60008311610d38576040517f08c379a00000000000000000000000000000000000000000000000000000000081526004018080602001828103825260168152602001807f65746820616d6f756e742063616e6e6f7420626520300000000000000000000081525060200191505060405180910390fd5b60008211610dae576040517f08c379a00000000000000000000000000000000000000000000000000000000081526004018080602001828103825260168152602001807f63746e20616d6f756e742063616e6e6f7420626520300000000000000000000081525060200191505060405180910390fd5b82610db7610ca3565b1015610e2b576040517f08c379a00000000000000000000000000000000000000000000000000000000081526004018080602001828103825260168152602001807f6e6f7420656e6f7567682045544820696e20706f6f6c0000000000000000000081525060200191505060405180910390fd5b81610e3461132e565b1015610ea8576040517f08c379a00000000000000000000000000000000000000000000000000000000081526004018080602001828103825260168152602001807f6e6f7420656e6f7567682043544e20696e20706f6f6c0000000000000000000081525060200191505060405180910390fd5b82600360003373ffffffffffffffffffffffffffffffffffffffff1673ffffffffffffffffffffffffffffffffffffffff1681526020019081526020016000205411610f5c576040517f08c379a00000000000000000000000000000000000000000000000000000000081526004018080602001828103825260188152602001807f6e6f7420656e6f75676820455448206465706f7369746564000000000000000081525060200191505060405180910390fd5b81600460003373ffffffffffffffffffffffffffffffffffffffff1673ffffffffffffffffffffffffffffffffffffffff1681526020019081526020016000205411611010576040517f08c379a00000000000000000000000000000000000000000000000000000000081526004018080602001828103825260188152602001807f6e6f7420656e6f7567682043544e206465706f7369746564000000000000000081525060200191505060405180910390fd5b8060025410611087576040517f08c379a000000000000000000000000000000000000000000000000000000000815260040180806020018281038252600e8152602001807f696e76616c69642072657761726400000000000000000000000000000000000081525060200191505060405180910390fd5b600061109c828461157a90919063ffffffff16565b9050600160009054906101000a900473ffffffffffffffffffffffffffffffffffffffff1673ffffffffffffffffffffffffffffffffffffffff166323b872dd3033846040518463ffffffff1660e01b8152600401808473ffffffffffffffffffffffffffffffffffffffff1673ffffffffffffffffffffffffffffffffffffffff1681526020018373ffffffffffffffffffffffffffffffffffffffff1673ffffffffffffffffffffffffffffffffffffffff1681526020018281526020019350505050602060405180830381600087803b15801561117b57600080fd5b505af115801561118f573d6000803e3d6000fd5b505050506040513d60208110156111a557600080fd5b8101908080519060200190929190505050503373ffffffffffffffffffffffffffffffffffffffff166108fc859081150290604051600060405180830381858888f193505050501580156111fd573d6000803e3d6000fd5b5061125084600360003373ffffffffffffffffffffffffffffffffffffffff1673ffffffffffffffffffffffffffffffffffffffff1681526020019081526020016000205461154290919063ffffffff16565b600360003373ffffffffffffffffffffffffffffffffffffffff1673ffffffffffffffffffffffffffffffffffffffff168152602001908152602001600020819055506112e583600460003373ffffffffffffffffffffffffffffffffffffffff1673ffffffffffffffffffffffffffffffffffffffff1681526020019081526020016000205461154290919063ffffffff16565b600460003373ffffffffffffffffffffffffffffffffffffffff1673ffffffffffffffffffffffffffffffffffffffff1681526020019081526020016000208190555050505050565b600061141e600254600160009054906101000a900473ffffffffffffffffffffffffffffffffffffffff1673ffffffffffffffffffffffffffffffffffffffff166370a08231306040518263ffffffff1660e01b8152600401808273ffffffffffffffffffffffffffffffffffffffff1673ffffffffffffffffffffffffffffffffffffffff16815260200191505060206040518083038186803b1580156113d557600080fd5b505afa1580156113e9573d6000803e3d6000fd5b505050506040513d60208110156113ff57600080fd5b810190808051906020019092919050505061154290919063ffffffff16565b905090565b6000600254905090565b60008083141561144057600090506114ad565b600082840290508284828161145157fe5b04146114a8576040517f08c379a000000000000000000000000000000000000000000000000000000000815260040180806020018281038252602181526020018061159a6021913960400191505060405180910390fd5b809150505b92915050565b600080821161152a576040517f08c379a000000000000000000000000000000000000000000000000000000000815260040180806020018281038252601a8152602001807f536166654d6174683a206469766973696f6e206279207a65726f00000000000081525060200191505060405180910390fd5b600082848161153557fe5b0490508091505092915050565b60008282111561155157600080fd5b818303905092915050565b6115718160025461157a90919063ffffffff16565b60028190555050565b60008082840190508381101561158f57600080fd5b809150509291505056fe536166654d6174683a206d756c7469706c69636174696f6e206f766572666c6f77a265627a7a723158206986af9d77ecd8ab9cb520cdce708dbf70fec49a5e2edde801dd57397654565b64736f6c63430005100032",
  "source": "pragma solidity >=0.4.21 <0.6.0;\n\nimport \"./SafeMath.sol\";\nimport \"./CherryToken.sol\";\n\ncontract CherryPool {\n  using SafeMath for uint256;\n\n  address private _owner;\n  CherryToken private _cherryToken;\n\n  uint256 private _collectedFees = 0;\n\n  mapping(address => uint256) private _balancesInEth;\n  mapping(address => uint256) private _balancesInCtn;\n  mapping(address => uint256) private _unresolvedEth;\n\n  constructor(CherryToken cherryToken) public {\n    _cherryToken = cherryToken;\n    _owner = msg.sender;\n  }\n\n  function () external payable {\n    swapEthToCtn();\n  }\n\n  function getEthBalance() public view returns (uint256 balance) {\n    return address(this).balance;\n  }\n\n  function getCtnBalance() public view returns (uint256 balance) {\n    return _cherryToken.balanceOf(address(this)).sub(_collectedFees);\n  }\n\n  function getCollectedFees() public view returns (uint256 fees) {\n    return _collectedFees;\n  }\n\n  function getPooledEthFunds(address owner) public view returns (uint256 funds) {\n    return _balancesInEth[owner];\n  }\n\n  function getPooledCtnFunds(address owner) public view returns (uint256 funds) {\n    return _balancesInCtn[owner];\n  }\n\n  //-------------------\n\n  function addLiquidity(uint256 ctnAmount) public payable {\n    require(msg.value > 0, \"ETH amount cannot be 0\");\n    require(ctnAmount > 0, \"CTN amount cannot be 0\");\n    require(_cherryToken.balanceOf(msg.sender) > ctnAmount, \"not enough CTN funds\");\n    _cherryToken.transferFrom(msg.sender, address(this), ctnAmount);\n    _balancesInEth[msg.sender] = _balancesInEth[msg.sender].add(msg.value);\n    _balancesInCtn[msg.sender] = _balancesInCtn[msg.sender].add(ctnAmount);\n  }\n\n  function removeLiquidity(uint256 ethAmount, uint256 ctnAmount, uint256 reward) public {\n    require(ethAmount > 0, \"eth amount cannot be 0\");\n    require(ctnAmount > 0, \"ctn amount cannot be 0\");\n    require(getEthBalance() >= ethAmount, \"not enough ETH in pool\");\n    require(getCtnBalance() >= ctnAmount, \"not enough CTN in pool\");\n    require(_balancesInEth[msg.sender] > ethAmount, \"not enough ETH deposited\");\n    require(_balancesInCtn[msg.sender] > ctnAmount, \"not enough CTN deposited\");\n    require(_collectedFees < reward, \"invalid reward\");\n    uint256 ctnPayout = ctnAmount.add(reward);\n    _cherryToken.transferFrom(address(this), msg.sender, ctnPayout);\n    msg.sender.transfer(ethAmount);\n    _balancesInEth[msg.sender] = _balancesInEth[msg.sender].sub(ethAmount);\n    _balancesInCtn[msg.sender] = _balancesInCtn[msg.sender].sub(ctnAmount);\n  }\n\n  // -------------------------\n\n  function swapEthToCtn() public payable {\n    require(msg.value > 0, \"amount cannot be 0\");\n    uint256 fees = msg.value.mul(10).div(10000); // 10%\n    uint256 ctnAmount = msg.value.mul(1000).sub(fees); // TODO: refactor\n    require(getCtnBalance() >= ctnAmount, \"not enough funds available\");\n    _addFees(fees);\n    _cherryToken.transfer(msg.sender, ctnAmount);\n  }\n\n  function swapCtnToEth(uint256 amount) public {\n    require(amount > 0, \"amount cannot be 0\");\n    uint256 fees = amount.mul(10).div(10000); // 10%\n    uint256 ethAmount = amount.sub(fees).div(1000); // TODO: refactor\n    require(getEthBalance() >= ethAmount, \"not enough funds available\");\n    _cherryToken.transferFrom(msg.sender, address(this), amount);\n    _addFees(fees);\n    msg.sender.transfer(ethAmount);\n  }\n\n  function _addFees(uint256 amount) private {\n    _collectedFees = _collectedFees.add(amount);\n  }\n}",
  "sourcePath": "/Users/johannes/Documents/Projects/web-projects/cherrypool/contracts/CherryPool.sol",
  "compiler": {
    "name": "solc",
    "version": "0.5.16+commit.9c3226ce.Emscripten.clang"
  },
  "schemaVersion": "3.2.3",
  "updatedAt": "2021-01-20T11:35:23.215Z",
  "devdoc": {
    "methods": {}
  },
  "userdoc": {
    "methods": {}
  }
}